{
  "_format": "hh3-artifact-1",
  "contractName": "GameItems",
  "sourceName": "contracts/GameItems.sol",
  "abi": [
    {
      "inputs": [
        {
          "internalType": "address",
          "name": "_plantNFT",
          "type": "address"
        }
      ],
      "stateMutability": "nonpayable",
      "type": "constructor"
    },
    {
      "inputs": [
        {
          "internalType": "address",
          "name": "sender",
          "type": "address"
        },
        {
          "internalType": "uint256",
          "name": "balance",
          "type": "uint256"
        },
        {
          "internalType": "uint256",
          "name": "needed",
          "type": "uint256"
        },
        {
          "internalType": "uint256",
          "name": "tokenId",
          "type": "uint256"
        }
      ],
      "name": "ERC1155InsufficientBalance",
      "type": "error"
    },
    {
      "inputs": [
        {
          "internalType": "address",
          "name": "approver",
          "type": "address"
        }
      ],
      "name": "ERC1155InvalidApprover",
      "type": "error"
    },
    {
      "inputs": [
        {
          "internalType": "uint256",
          "name": "idsLength",
          "type": "uint256"
        },
        {
          "internalType": "uint256",
          "name": "valuesLength",
          "type": "uint256"
        }
      ],
      "name": "ERC1155InvalidArrayLength",
      "type": "error"
    },
    {
      "inputs": [
        {
          "internalType": "address",
          "name": "operator",
          "type": "address"
        }
      ],
      "name": "ERC1155InvalidOperator",
      "type": "error"
    },
    {
      "inputs": [
        {
          "internalType": "address",
          "name": "receiver",
          "type": "address"
        }
      ],
      "name": "ERC1155InvalidReceiver",
      "type": "error"
    },
    {
      "inputs": [
        {
          "internalType": "address",
          "name": "sender",
          "type": "address"
        }
      ],
      "name": "ERC1155InvalidSender",
      "type": "error"
    },
    {
      "inputs": [
        {
          "internalType": "address",
          "name": "operator",
          "type": "address"
        },
        {
          "internalType": "address",
          "name": "owner",
          "type": "address"
        }
      ],
      "name": "ERC1155MissingApprovalForAll",
      "type": "error"
    },
    {
      "inputs": [
        {
          "internalType": "address",
          "name": "owner",
          "type": "address"
        }
      ],
      "name": "OwnableInvalidOwner",
      "type": "error"
    },
    {
      "inputs": [
        {
          "internalType": "address",
          "name": "account",
          "type": "address"
        }
      ],
      "name": "OwnableUnauthorizedAccount",
      "type": "error"
    },
    {
      "anonymous": false,
      "inputs": [
        {
          "indexed": true,
          "internalType": "address",
          "name": "account",
          "type": "address"
        },
        {
          "indexed": true,
          "internalType": "address",
          "name": "operator",
          "type": "address"
        },
        {
          "indexed": false,
          "internalType": "bool",
          "name": "approved",
          "type": "bool"
        }
      ],
      "name": "ApprovalForAll",
      "type": "event"
    },
    {
      "anonymous": false,
      "inputs": [
        {
          "indexed": true,
          "internalType": "address",
          "name": "player",
          "type": "address"
        },
        {
          "indexed": true,
          "internalType": "uint256",
          "name": "plantId",
          "type": "uint256"
        },
        {
          "indexed": true,
          "internalType": "uint256",
          "name": "itemId",
          "type": "uint256"
        }
      ],
      "name": "ItemUsed",
      "type": "event"
    },
    {
      "anonymous": false,
      "inputs": [
        {
          "indexed": true,
          "internalType": "address",
          "name": "previousOwner",
          "type": "address"
        },
        {
          "indexed": true,
          "internalType": "address",
          "name": "newOwner",
          "type": "address"
        }
      ],
      "name": "OwnershipTransferred",
      "type": "event"
    },
    {
      "anonymous": false,
      "inputs": [
        {
          "indexed": true,
          "internalType": "address",
          "name": "operator",
          "type": "address"
        },
        {
          "indexed": true,
          "internalType": "address",
          "name": "from",
          "type": "address"
        },
        {
          "indexed": true,
          "internalType": "address",
          "name": "to",
          "type": "address"
        },
        {
          "indexed": false,
          "internalType": "uint256[]",
          "name": "ids",
          "type": "uint256[]"
        },
        {
          "indexed": false,
          "internalType": "uint256[]",
          "name": "values",
          "type": "uint256[]"
        }
      ],
      "name": "TransferBatch",
      "type": "event"
    },
    {
      "anonymous": false,
      "inputs": [
        {
          "indexed": true,
          "internalType": "address",
          "name": "operator",
          "type": "address"
        },
        {
          "indexed": true,
          "internalType": "address",
          "name": "from",
          "type": "address"
        },
        {
          "indexed": true,
          "internalType": "address",
          "name": "to",
          "type": "address"
        },
        {
          "indexed": false,
          "internalType": "uint256",
          "name": "id",
          "type": "uint256"
        },
        {
          "indexed": false,
          "internalType": "uint256",
          "name": "value",
          "type": "uint256"
        }
      ],
      "name": "TransferSingle",
      "type": "event"
    },
    {
      "anonymous": false,
      "inputs": [
        {
          "indexed": false,
          "internalType": "string",
          "name": "value",
          "type": "string"
        },
        {
          "indexed": true,
          "internalType": "uint256",
          "name": "id",
          "type": "uint256"
        }
      ],
      "name": "URI",
      "type": "event"
    },
    {
      "inputs": [
        {
          "internalType": "address",
          "name": "account",
          "type": "address"
        },
        {
          "internalType": "uint256",
          "name": "id",
          "type": "uint256"
        }
      ],
      "name": "balanceOf",
      "outputs": [
        {
          "internalType": "uint256",
          "name": "",
          "type": "uint256"
        }
      ],
      "stateMutability": "view",
      "type": "function"
    },
    {
      "inputs": [
        {
          "internalType": "address[]",
          "name": "accounts",
          "type": "address[]"
        },
        {
          "internalType": "uint256[]",
          "name": "ids",
          "type": "uint256[]"
        }
      ],
      "name": "balanceOfBatch",
      "outputs": [
        {
          "internalType": "uint256[]",
          "name": "",
          "type": "uint256[]"
        }
      ],
      "stateMutability": "view",
      "type": "function"
    },
    {
      "inputs": [
        {
          "internalType": "address",
          "name": "player",
          "type": "address"
        },
        {
          "internalType": "uint256",
          "name": "plantId",
          "type": "uint256"
        }
      ],
      "name": "getActiveBoosts",
      "outputs": [
        {
          "components": [
            {
              "internalType": "uint256",
              "name": "multiplier",
              "type": "uint256"
            },
            {
              "internalType": "uint256",
              "name": "expiresAt",
              "type": "uint256"
            }
          ],
          "internalType": "struct GameItems.ActiveBoost[]",
          "name": "",
          "type": "tuple[]"
        }
      ],
      "stateMutability": "view",
      "type": "function"
    },
    {
      "inputs": [
        {
          "internalType": "address",
          "name": "player",
          "type": "address"
        },
        {
          "internalType": "uint256",
          "name": "plantId",
          "type": "uint256"
        }
      ],
      "name": "getEffectiveGrowthRate",
      "outputs": [
        {
          "internalType": "uint256",
          "name": "",
          "type": "uint256"
        }
      ],
      "stateMutability": "view",
      "type": "function"
    },
    {
      "inputs": [
        {
          "internalType": "uint256",
          "name": "limit",
          "type": "uint256"
        }
      ],
      "name": "getMostUsedItems",
      "outputs": [
        {
          "internalType": "uint256[]",
          "name": "itemIds",
          "type": "uint256[]"
        },
        {
          "internalType": "uint256[]",
          "name": "usageCounts",
          "type": "uint256[]"
        }
      ],
      "stateMutability": "view",
      "type": "function"
    },
    {
      "inputs": [
        {
          "internalType": "address",
          "name": "account",
          "type": "address"
        },
        {
          "internalType": "address",
          "name": "operator",
          "type": "address"
        }
      ],
      "name": "isApprovedForAll",
      "outputs": [
        {
          "internalType": "bool",
          "name": "",
          "type": "bool"
        }
      ],
      "stateMutability": "view",
      "type": "function"
    },
    {
      "inputs": [
        {
          "internalType": "uint256",
          "name": "",
          "type": "uint256"
        }
      ],
      "name": "itemEffects",
      "outputs": [
        {
          "internalType": "uint256",
          "name": "growthMultiplier",
          "type": "uint256"
        },
        {
          "internalType": "uint256",
          "name": "rarityBoost",
          "type": "uint256"
        },
        {
          "internalType": "uint256",
          "name": "durationSeconds",
          "type": "uint256"
        },
        {
          "internalType": "bool",
          "name": "isConsumable",
          "type": "bool"
        }
      ],
      "stateMutability": "view",
      "type": "function"
    },
    {
      "inputs": [
        {
          "internalType": "uint256",
          "name": "",
          "type": "uint256"
        }
      ],
      "name": "itemUsageCount",
      "outputs": [
        {
          "internalType": "uint256",
          "name": "",
          "type": "uint256"
        }
      ],
      "stateMutability": "view",
      "type": "function"
    },
    {
      "inputs": [
        {
          "internalType": "address",
          "name": "to",
          "type": "address"
        },
        {
          "internalType": "uint256",
          "name": "id",
          "type": "uint256"
        },
        {
          "internalType": "uint256",
          "name": "amount",
          "type": "uint256"
        },
        {
          "internalType": "bytes",
          "name": "data",
          "type": "bytes"
        }
      ],
      "name": "mint",
      "outputs": [],
      "stateMutability": "nonpayable",
      "type": "function"
    },
    {
      "inputs": [],
      "name": "owner",
      "outputs": [
        {
          "internalType": "address",
          "name": "",
          "type": "address"
        }
      ],
      "stateMutability": "view",
      "type": "function"
    },
    {
      "inputs": [],
      "name": "plantNFT",
      "outputs": [
        {
          "internalType": "contract IPlantNFT",
          "name": "",
          "type": "address"
        }
      ],
      "stateMutability": "view",
      "type": "function"
    },
    {
      "inputs": [
        {
          "internalType": "address",
          "name": "",
          "type": "address"
        },
        {
          "internalType": "uint256",
          "name": "",
          "type": "uint256"
        }
      ],
      "name": "playerItemUsage",
      "outputs": [
        {
          "internalType": "uint256",
          "name": "",
          "type": "uint256"
        }
      ],
      "stateMutability": "view",
      "type": "function"
    },
    {
      "inputs": [
        {
          "internalType": "address",
          "name": "",
          "type": "address"
        },
        {
          "internalType": "uint256",
          "name": "",
          "type": "uint256"
        },
        {
          "internalType": "uint256",
          "name": "",
          "type": "uint256"
        }
      ],
      "name": "playerPlantBoosts",
      "outputs": [
        {
          "internalType": "uint256",
          "name": "multiplier",
          "type": "uint256"
        },
        {
          "internalType": "uint256",
          "name": "expiresAt",
          "type": "uint256"
        }
      ],
      "stateMutability": "view",
      "type": "function"
    },
    {
      "inputs": [],
      "name": "renounceOwnership",
      "outputs": [],
      "stateMutability": "nonpayable",
      "type": "function"
    },
    {
      "inputs": [
        {
          "internalType": "address",
          "name": "from",
          "type": "address"
        },
        {
          "internalType": "address",
          "name": "to",
          "type": "address"
        },
        {
          "internalType": "uint256[]",
          "name": "ids",
          "type": "uint256[]"
        },
        {
          "internalType": "uint256[]",
          "name": "values",
          "type": "uint256[]"
        },
        {
          "internalType": "bytes",
          "name": "data",
          "type": "bytes"
        }
      ],
      "name": "safeBatchTransferFrom",
      "outputs": [],
      "stateMutability": "nonpayable",
      "type": "function"
    },
    {
      "inputs": [
        {
          "internalType": "address",
          "name": "from",
          "type": "address"
        },
        {
          "internalType": "address",
          "name": "to",
          "type": "address"
        },
        {
          "internalType": "uint256",
          "name": "id",
          "type": "uint256"
        },
        {
          "internalType": "uint256",
          "name": "value",
          "type": "uint256"
        },
        {
          "internalType": "bytes",
          "name": "data",
          "type": "bytes"
        }
      ],
      "name": "safeTransferFrom",
      "outputs": [],
      "stateMutability": "nonpayable",
      "type": "function"
    },
    {
      "inputs": [
        {
          "internalType": "address",
          "name": "operator",
          "type": "address"
        },
        {
          "internalType": "bool",
          "name": "approved",
          "type": "bool"
        }
      ],
      "name": "setApprovalForAll",
      "outputs": [],
      "stateMutability": "nonpayable",
      "type": "function"
    },
    {
      "inputs": [
        {
          "internalType": "bytes4",
          "name": "interfaceId",
          "type": "bytes4"
        }
      ],
      "name": "supportsInterface",
      "outputs": [
        {
          "internalType": "bool",
          "name": "",
          "type": "bool"
        }
      ],
      "stateMutability": "view",
      "type": "function"
    },
    {
      "inputs": [
        {
          "internalType": "address",
          "name": "newOwner",
          "type": "address"
        }
      ],
      "name": "transferOwnership",
      "outputs": [],
      "stateMutability": "nonpayable",
      "type": "function"
    },
    {
      "inputs": [
        {
          "internalType": "uint256",
          "name": "",
          "type": "uint256"
        }
      ],
      "name": "uri",
      "outputs": [
        {
          "internalType": "string",
          "name": "",
          "type": "string"
        }
      ],
      "stateMutability": "view",
      "type": "function"
    },
    {
      "inputs": [
        {
          "internalType": "uint256",
          "name": "plantId",
          "type": "uint256"
        },
        {
          "internalType": "uint256",
          "name": "itemId",
          "type": "uint256"
        }
      ],
      "name": "useItem",
      "outputs": [],
      "stateMutability": "nonpayable",
      "type": "function"
    },
    {
      "inputs": [
        {
          "internalType": "uint256",
          "name": "plantId",
          "type": "uint256"
        },
        {
          "internalType": "uint256[]",
          "name": "itemIds",
          "type": "uint256[]"
        },
        {
          "internalType": "uint256[]",
          "name": "amounts",
          "type": "uint256[]"
        }
      ],
      "name": "useItemBatch",
      "outputs": [],
      "stateMutability": "nonpayable",
      "type": "function"
    }
  ],
  "bytecode": "0x608060405234801561000f575f5ffd5b5060405161246838038061246883398101604081905261002e9161035b565b60408051602081019091525f81523390610047816102fa565b506001600160a01b03811661007557604051631e4fbdf760e01b81525f600482015260240160405180910390fd5b61007e8161030a565b50600480546001600160a01b039092166001600160a01b0319909216919091179055604080516080808201835260c882525f602080840182815284860183815260016060808801828152828752600580875298517f1471eb6eb2c5e789fc3de43f8ce62938c7d1836ec861730447e2ada8fd81017b5593517f1471eb6eb2c5e789fc3de43f8ce62938c7d1836ec861730447e2ada8fd81017c5591517f1471eb6eb2c5e789fc3de43f8ce62938c7d1836ec861730447e2ada8fd81017d5591517f1471eb6eb2c5e789fc3de43f8ce62938c7d1836ec861730447e2ada8fd81017e805491151560ff199283161790558751808701895261012c8152808501868152610e10828b01908152828501868152600289528a885292517f89832631fb3c3307a103ba2c84ab569c64d6182a18893dcd163f0f1c2090733a5590517f89832631fb3c3307a103ba2c84ab569c64d6182a18893dcd163f0f1c2090733b55517f89832631fb3c3307a103ba2c84ab569c64d6182a18893dcd163f0f1c2090733c55517f89832631fb3c3307a103ba2c84ab569c64d6182a18893dcd163f0f1c2090733d8054911515918316919091179055875195860188526101f48652858401858152611c2098870198895291860192835260039094529490915291517fa9bc9a3a348c357ba16b37005d7e6b3236198c0e939f4af8c5f19b8deeb8ebc05591517fa9bc9a3a348c357ba16b37005d7e6b3236198c0e939f4af8c5f19b8deeb8ebc15591517fa9bc9a3a348c357ba16b37005d7e6b3236198c0e939f4af8c5f19b8deeb8ebc25590517fa9bc9a3a348c357ba16b37005d7e6b3236198c0e939f4af8c5f19b8deeb8ebc38054911515919092161790556104da565b60026103068282610420565b5050565b600380546001600160a01b038381166001600160a01b0319831681179093556040519116919082907f8be0079c531659141344cd1fd0a4f28419497f9722a3daafe3b4186f6b6457e0905f90a35050565b5f6020828403121561036b575f5ffd5b81516001600160a01b0381168114610381575f5ffd5b9392505050565b634e487b7160e01b5f52604160045260245ffd5b600181811c908216806103b057607f821691505b6020821081036103ce57634e487b7160e01b5f52602260045260245ffd5b50919050565b601f82111561041b57805f5260205f20601f840160051c810160208510156103f95750805b601f840160051c820191505b81811015610418575f8155600101610405565b50505b505050565b81516001600160401b0381111561043957610439610388565b61044d81610447845461039c565b846103d4565b6020601f82116001811461047f575f83156104685750848201515b5f19600385901b1c1916600184901b178455610418565b5f84815260208120601f198516915b828110156104ae578785015182556020948501946001909201910161048e565b50848210156104cb57868401515f19600387901b60f8161c191681555b50505050600190811b01905550565b611f81806104e75f395ff3fe608060405234801561000f575f5ffd5b506004361061013c575f3560e01c80637ead6eee116100b4578063ae5f601011610079578063ae5f60101461032d578063d03add2914610355578063db6f310614610368578063e985e9c514610388578063f242432a1461039b578063f2fde38b146103ae575f5ffd5b80637ead6eee146102b05780638da5cb5b146102cf57806395061acf146102f4578063a22cb46514610307578063abf084a31461031a575f5ffd5b80634081b580116101055780634081b580146101d15780634e1273f4146101fb578063657ff8dc1461021b578063715018a61461023c578063731133e9146102445780637344d12c14610257575f5ffd5b8062fdd58e1461014057806301ffc9a7146101665780630e89341c146101895780632686bf76146101a95780632eb2c2d6146101bc575b5f5ffd5b61015361014e366004611729565b6103c1565b6040519081526020015b60405180910390f35b610179610174366004611768565b6103e8565b604051901515815260200161015d565b61019c61019736600461178a565b610437565b60405161015d91906117cf565b6101536101b7366004611729565b6104c9565b6101cf6101ca36600461191c565b6105c9565b005b6101536101df366004611729565b600860209081525f928352604080842090915290825290205481565b61020e6102093660046119cc565b610635565b60405161015d9190611ac9565b61022e61022936600461178a565b6106ff565b60405161015d929190611adb565b6101cf6108e7565b6101cf610252366004611b08565b6108fa565b61028e61026536600461178a565b60056020525f908152604090208054600182015460028301546003909301549192909160ff1684565b604080519485526020850193909352918301521515606082015260800161015d565b6101536102be36600461178a565b60076020525f908152604090205481565b6003546001600160a01b03165b6040516001600160a01b03909116815260200161015d565b6101cf610302366004611b66565b610914565b6101cf610315366004611b93565b610c6e565b6004546102dc906001600160a01b031681565b61034061033b366004611bca565b610c7d565b6040805192835260208301919091520161015d565b6101cf610363366004611c43565b610cc1565b61037b610376366004611729565b610d63565b60405161015d9190611cba565b610179610396366004611d08565b610f1e565b6101cf6103a9366004611d34565b610f4b565b6101cf6103bc366004611d8b565b610faa565b5f818152602081815260408083206001600160a01b03861684529091529020545b92915050565b5f6001600160e01b03198216636cdb3d1360e11b148061041857506001600160e01b031982166303a24d0760e21b145b806103e257506301ffc9a760e01b6001600160e01b03198316146103e2565b60606002805461044690611da6565b80601f016020809104026020016040519081016040528092919081815260200182805461047290611da6565b80156104bd5780601f10610494576101008083540402835291602001916104bd565b820191905f5260205f20905b8154815290600101906020018083116104a057829003601f168201915b50505050509050919050565b6001600160a01b0382165f908152600660209081526040808320848452825280832080548251818502810185019093528083528493849084015b82821015610546578382905f5260205f2090600202016040518060400160405290815f820154815260200160018201548152505081526020019060010190610503565b50929350606492505f9150505b82518110156105c0574283828151811061056f5761056f611dde565b60200260200101516020015111156105b857606483828151811061059557610595611dde565b60200260200101515f0151836105ab9190611e06565b6105b59190611e19565b91505b600101610553565b50949350505050565b336001600160a01b03861681148015906105ea57506105e88682610f1e565b155b156106205760405163711bec9160e11b81526001600160a01b038083166004830152871660248201526044015b60405180910390fd5b61062d8686868686610fe7565b505050505050565b606081518351146106665781518351604051635b05999160e01b815260048101929092526024820152604401610617565b5f83516001600160401b03811115610680576106806117e1565b6040519080825280602002602001820160405280156106a9578160200160208202803683370190505b5090505f5b84518110156106f7576020808202860101516106d2906020808402870101516103c1565b8282815181106106e4576106e4611dde565b60209081029190910101526001016106ae565b509392505050565b6060805f836001600160401b0381111561071b5761071b6117e1565b604051908082528060200260200182016040528015610744578160200160208202803683370190505b5090505f846001600160401b03811115610760576107606117e1565b604051908082528060200260200182016040528015610789578160200160208202803683370190505b50905060015b600a81116108dc575f81815260076020526040812054905b878110156108c7578381815181106107c1576107c1611dde565b60200260200101518211156108bf575f6107dc60018a611e19565b90505b8181111561087b57856107f3600183611e19565b8151811061080357610803611dde565b602002602001015186828151811061081d5761081d611dde565b602090810291909101015284610834600183611e19565b8151811061084457610844611dde565b602002602001015185828151811061085e5761085e611dde565b60209081029190910101528061087381611e2c565b9150506107df565b508285828151811061088f5761088f611dde565b602002602001018181525050818482815181106108ae576108ae611dde565b6020026020010181815250506108c7565b6001016107a7565b505080806108d490611e41565b91505061078f565b509094909350915050565b6108ef61104c565b6108f85f611079565b565b61090261104c565b61090e848484846110ca565b50505050565b600480546040516331a9108f60e11b815291820184905233916001600160a01b0390911690636352211e90602401602060405180830381865afa15801561095d573d5f5f3e3d5ffd5b505050506040513d601f19601f820116820180604052508101906109819190611e59565b6001600160a01b0316146109cd5760405162461bcd60e51b81526020600482015260136024820152722737ba103a343290383630b73a1037bbb732b960691b6044820152606401610617565b60016109d933836103c1565b1015610a275760405162461bcd60e51b815260206004820152601960248201527f496e73756666696369656e74206974656d2062616c616e6365000000000000006044820152606401610617565b5f81815260056020908152604091829020825160808101845281548082526001830154938201939093526002820154938101939093526003015460ff1615156060830152610aa65760405162461bcd60e51b815260206004820152600c60248201526b496e76616c6964206974656d60a01b6044820152606401610617565b80604001515f03610b7b576004805460405162e4981f60e41b81529182018590526001600160a01b031690630e4981f090602401602060405180830381865afa158015610af5573d5f5f3e3d5ffd5b505050506040513d601f19601f82011682018060405250810190610b199190611e74565b15610b7657600480546040516378a5787b60e11b81529182018590526001600160a01b03169063f14af0f6906024015f604051808303815f87803b158015610b5f575f5ffd5b505af1158015610b71573d5f5f3e3d5ffd5b505050505b610bdd565b335f908152600660209081526040808320868452825291829020825180840184528451815292840151909291820190610bb49042611e06565b90528154600181810184555f938452602093849020835160029093020191825592909101519101555b806060015115610bf357610bf333836001611125565b5f828152600760205260408120805491610c0c83611e41565b9091555050335f9081526008602090815260408083208584529091528120805491610c3683611e41565b90915550506040518290849033907f0930207b722c4015adcfc448462650fe3f70fca24fa9c3c76f1ca2e229cba76c905f90a4505050565b610c7933838361118b565b5050565b6006602052825f5260405f20602052815f5260405f208181548110610ca0575f80fd5b5f918252602090912060029091020180546001909101549093509150839050565b828114610d045760405162461bcd60e51b81526020600482015260116024820152704d69736d6174636865642061727261797360781b6044820152606401610617565b5f5b8381101561062d575f5b838383818110610d2257610d22611dde565b90506020020135811015610d5a57610d5287878785818110610d4657610d46611dde565b90506020020135610914565b600101610d10565b50600101610d06565b6001600160a01b0382165f9081526006602090815260408083208484528252808320805482518185028101850190935280835260609493849084015b82821015610de2578382905f5260205f2090600202016040518060400160405290815f820154815260200160018201548152505081526020019060010190610d9f565b509293505f9250829150505b8251811015610e325742838281518110610e0a57610e0a611dde565b6020026020010151602001511115610e2a5781610e2681611e41565b9250505b600101610dee565b505f816001600160401b03811115610e4c57610e4c6117e1565b604051908082528060200260200182016040528015610e9057816020015b604080518082019091525f8082526020820152815260200190600190039081610e6a5790505b5090505f805b8451811015610f125742858281518110610eb257610eb2611dde565b6020026020010151602001511115610f0a57848181518110610ed657610ed6611dde565b6020026020010151838381518110610ef057610ef0611dde565b60200260200101819052508180610f0690611e41565b9250505b600101610e96565b50909695505050505050565b6001600160a01b039182165f90815260016020908152604080832093909416825291909152205460ff1690565b336001600160a01b0386168114801590610f6c5750610f6a8682610f1e565b155b15610f9d5760405163711bec9160e11b81526001600160a01b03808316600483015287166024820152604401610617565b61062d868686868661121f565b610fb261104c565b6001600160a01b038116610fdb57604051631e4fbdf760e01b81525f6004820152602401610617565b610fe481611079565b50565b6001600160a01b03841661101057604051632bfa23e760e11b81525f6004820152602401610617565b6001600160a01b03851661103857604051626a0d4560e21b81525f6004820152602401610617565b61104585858585856112ab565b5050505050565b6003546001600160a01b031633146108f85760405163118cdaa760e01b8152336004820152602401610617565b600380546001600160a01b038381166001600160a01b0319831681179093556040519116919082907f8be0079c531659141344cd1fd0a4f28419497f9722a3daafe3b4186f6b6457e0905f90a35050565b6001600160a01b0384166110f357604051632bfa23e760e11b81525f6004820152602401610617565b6040805160018082526020820186905281830190815260608201859052608082019092529061062d5f878484876112ab565b6001600160a01b03831661114d57604051626a0d4560e21b81525f6004820152602401610617565b604080516001808252602082018590528183019081526060820184905260a082019092525f60808201818152919291611045918791859085906112ab565b6001600160a01b0382166111b35760405162ced3e160e81b81525f6004820152602401610617565b6001600160a01b038381165f81815260016020908152604080832094871680845294825291829020805460ff191686151590811790915591519182527f17307eab39ab6107e8899845ad3d59bd9653f200f220920489ca2b5937696c31910160405180910390a3505050565b6001600160a01b03841661124857604051632bfa23e760e11b81525f6004820152602401610617565b6001600160a01b03851661127057604051626a0d4560e21b81525f6004820152602401610617565b604080516001808252602082018690528183019081526060820185905260808201909252906112a287878484876112ab565b50505050505050565b6112b7858585856112fe565b6001600160a01b0384161561104557825133906001036112f057602084810151908401516112e983898985858961150d565b505061062d565b61062d81878787878761162e565b805182511461132d5781518151604051635b05999160e01b815260048101929092526024820152604401610617565b335f5b835181101561142f576020818102858101820151908501909101516001600160a01b038816156113e1575f828152602081815260408083206001600160a01b038c168452909152902054818110156113bb576040516303dee4c560e01b81526001600160a01b038a166004820152602481018290526044810183905260648101849052608401610617565b5f838152602081815260408083206001600160a01b038d16845290915290209082900390555b6001600160a01b03871615611425575f828152602081815260408083206001600160a01b038b1684529091528120805483929061141f908490611e06565b90915550505b5050600101611330565b5082516001036114af5760208301515f906020840151909150856001600160a01b0316876001600160a01b0316846001600160a01b03167fc3d58168c5ae7397731d063d5bbf3d657854427343f4c083240f7aacaa2d0f6285856040516114a0929190918252602082015260400190565b60405180910390a45050611045565b836001600160a01b0316856001600160a01b0316826001600160a01b03167f4a39dc06d4c0dbc64b70af90fd698a233a518aa5d07e595d983b8c0526c8f7fb86866040516114fe929190611adb565b60405180910390a45050505050565b6001600160a01b0384163b1561062d5760405163f23a6e6160e01b81526001600160a01b0385169063f23a6e61906115519089908990889088908890600401611e8f565b6020604051808303815f875af192505050801561158b575060408051601f3d908101601f1916820190925261158891810190611ed3565b60015b6115f2573d8080156115b8576040519150601f19603f3d011682016040523d82523d5f602084013e6115bd565b606091505b5080515f036115ea57604051632bfa23e760e11b81526001600160a01b0386166004820152602401610617565b805160208201fd5b6001600160e01b0319811663f23a6e6160e01b146112a257604051632bfa23e760e11b81526001600160a01b0386166004820152602401610617565b6001600160a01b0384163b1561062d5760405163bc197c8160e01b81526001600160a01b0385169063bc197c81906116729089908990889088908890600401611eee565b6020604051808303815f875af19250505080156116ac575060408051601f3d908101601f191682019092526116a991810190611ed3565b60015b6116d9573d8080156115b8576040519150601f19603f3d011682016040523d82523d5f602084013e6115bd565b6001600160e01b0319811663bc197c8160e01b146112a257604051632bfa23e760e11b81526001600160a01b0386166004820152602401610617565b6001600160a01b0381168114610fe4575f5ffd5b5f5f6040838503121561173a575f5ffd5b823561174581611715565b946020939093013593505050565b6001600160e01b031981168114610fe4575f5ffd5b5f60208284031215611778575f5ffd5b813561178381611753565b9392505050565b5f6020828403121561179a575f5ffd5b5035919050565b5f81518084528060208401602086015e5f602082860101526020601f19601f83011685010191505092915050565b602081525f61178360208301846117a1565b634e487b7160e01b5f52604160045260245ffd5b604051601f8201601f191681016001600160401b038111828210171561181d5761181d6117e1565b604052919050565b5f6001600160401b0382111561183d5761183d6117e1565b5060051b60200190565b5f82601f830112611856575f5ffd5b813561186961186482611825565b6117f5565b8082825260208201915060208360051b86010192508583111561188a575f5ffd5b602085015b838110156118a757803583526020928301920161188f565b5095945050505050565b5f82601f8301126118c0575f5ffd5b81356001600160401b038111156118d9576118d96117e1565b6118ec601f8201601f19166020016117f5565b818152846020838601011115611900575f5ffd5b816020850160208301375f918101602001919091529392505050565b5f5f5f5f5f60a08688031215611930575f5ffd5b853561193b81611715565b9450602086013561194b81611715565b935060408601356001600160401b03811115611965575f5ffd5b61197188828901611847565b93505060608601356001600160401b0381111561198c575f5ffd5b61199888828901611847565b92505060808601356001600160401b038111156119b3575f5ffd5b6119bf888289016118b1565b9150509295509295909350565b5f5f604083850312156119dd575f5ffd5b82356001600160401b038111156119f2575f5ffd5b8301601f81018513611a02575f5ffd5b8035611a1061186482611825565b8082825260208201915060208360051b850101925087831115611a31575f5ffd5b6020840193505b82841015611a5c578335611a4b81611715565b825260209384019390910190611a38565b945050505060208301356001600160401b03811115611a79575f5ffd5b611a8585828601611847565b9150509250929050565b5f8151808452602084019350602083015f5b82811015611abf578151865260209586019590910190600101611aa1565b5093949350505050565b602081525f6117836020830184611a8f565b604081525f611aed6040830185611a8f565b8281036020840152611aff8185611a8f565b95945050505050565b5f5f5f5f60808587031215611b1b575f5ffd5b8435611b2681611715565b9350602085013592506040850135915060608501356001600160401b03811115611b4e575f5ffd5b611b5a878288016118b1565b91505092959194509250565b5f5f60408385031215611b77575f5ffd5b50508035926020909101359150565b8015158114610fe4575f5ffd5b5f5f60408385031215611ba4575f5ffd5b8235611baf81611715565b91506020830135611bbf81611b86565b809150509250929050565b5f5f5f60608486031215611bdc575f5ffd5b8335611be781611715565b95602085013595506040909401359392505050565b5f5f83601f840112611c0c575f5ffd5b5081356001600160401b03811115611c22575f5ffd5b6020830191508360208260051b8501011115611c3c575f5ffd5b9250929050565b5f5f5f5f5f60608688031215611c57575f5ffd5b8535945060208601356001600160401b03811115611c73575f5ffd5b611c7f88828901611bfc565b90955093505060408601356001600160401b03811115611c9d575f5ffd5b611ca988828901611bfc565b969995985093965092949392505050565b602080825282518282018190525f918401906040840190835b81811015611cfd578351805184526020908101518185015290930192604090920191600101611cd3565b509095945050505050565b5f5f60408385031215611d19575f5ffd5b8235611d2481611715565b91506020830135611bbf81611715565b5f5f5f5f5f60a08688031215611d48575f5ffd5b8535611d5381611715565b94506020860135611d6381611715565b9350604086013592506060860135915060808601356001600160401b038111156119b3575f5ffd5b5f60208284031215611d9b575f5ffd5b813561178381611715565b600181811c90821680611dba57607f821691505b602082108103611dd857634e487b7160e01b5f52602260045260245ffd5b50919050565b634e487b7160e01b5f52603260045260245ffd5b634e487b7160e01b5f52601160045260245ffd5b808201808211156103e2576103e2611df2565b818103818111156103e2576103e2611df2565b5f81611e3a57611e3a611df2565b505f190190565b5f60018201611e5257611e52611df2565b5060010190565b5f60208284031215611e69575f5ffd5b815161178381611715565b5f60208284031215611e84575f5ffd5b815161178381611b86565b6001600160a01b03868116825285166020820152604081018490526060810183905260a0608082018190525f90611ec8908301846117a1565b979650505050505050565b5f60208284031215611ee3575f5ffd5b815161178381611753565b6001600160a01b0386811682528516602082015260a0604082018190525f90611f1990830186611a8f565b8281036060840152611f2b8186611a8f565b90508281036080840152611f3f81856117a1565b9897505050505050505056fea2646970667358221220abfea5f907d05059d6ce8bbbddaa508531e7f1420ea9443f9b6ee7b7c605e6f764736f6c634300081e0033",
  "linkReferences": {},
  "deployedLinkReferences": {},
  "immutableReferences": {},
  "inputSourceName": "project/contracts/GameItems.sol",
  "buildInfoId": "solc-0_8_30-8778b022ade345604358412a1f458986f8f04cd2"
}