{
  "_format": "hh3-artifact-1",
  "contractName": "LiskGarden",
  "sourceName": "contracts/LiskGarden.sol",
  "abi": [
    {
      "inputs": [
        {
          "internalType": "address",
          "name": "_gardenToken",
          "type": "address"
        },
        {
          "internalType": "address",
          "name": "_plantNFT",
          "type": "address"
        },
        {
          "internalType": "address",
          "name": "_gameItems",
          "type": "address"
        }
      ],
      "stateMutability": "nonpayable",
      "type": "constructor"
    },
    {
      "anonymous": false,
      "inputs": [
        {
          "indexed": true,
          "internalType": "address",
          "name": "player",
          "type": "address"
        },
        {
          "indexed": true,
          "internalType": "enum LiskGarden.Achievement",
          "name": "achievement",
          "type": "uint8"
        },
        {
          "indexed": false,
          "internalType": "uint256",
          "name": "timestamp",
          "type": "uint256"
        }
      ],
      "name": "AchievementUnlocked",
      "type": "event"
    },
    {
      "inputs": [
        {
          "internalType": "address",
          "name": "",
          "type": "address"
        },
        {
          "internalType": "enum LiskGarden.Achievement",
          "name": "",
          "type": "uint8"
        }
      ],
      "name": "achievementTimestamp",
      "outputs": [
        {
          "internalType": "uint256",
          "name": "",
          "type": "uint256"
        }
      ],
      "stateMutability": "view",
      "type": "function"
    },
    {
      "inputs": [
        {
          "internalType": "address",
          "name": "",
          "type": "address"
        },
        {
          "internalType": "enum LiskGarden.Achievement",
          "name": "",
          "type": "uint8"
        }
      ],
      "name": "achievements",
      "outputs": [
        {
          "internalType": "bool",
          "name": "",
          "type": "bool"
        }
      ],
      "stateMutability": "view",
      "type": "function"
    },
    {
      "inputs": [],
      "name": "gameItems",
      "outputs": [
        {
          "internalType": "contract GameItems",
          "name": "",
          "type": "address"
        }
      ],
      "stateMutability": "view",
      "type": "function"
    },
    {
      "inputs": [],
      "name": "gardenToken",
      "outputs": [
        {
          "internalType": "contract GardenToken",
          "name": "",
          "type": "address"
        }
      ],
      "stateMutability": "view",
      "type": "function"
    },
    {
      "inputs": [],
      "name": "getGameStats",
      "outputs": [
        {
          "components": [
            {
              "internalType": "uint256",
              "name": "totalPlantsMinted",
              "type": "uint256"
            },
            {
              "internalType": "uint256",
              "name": "totalHarvests",
              "type": "uint256"
            },
            {
              "internalType": "uint256",
              "name": "totalGDNMinted",
              "type": "uint256"
            },
            {
              "internalType": "uint256",
              "name": "totalItemsSold",
              "type": "uint256"
            }
          ],
          "internalType": "struct LiskGarden.GameStats",
          "name": "",
          "type": "tuple"
        }
      ],
      "stateMutability": "view",
      "type": "function"
    },
    {
      "inputs": [
        {
          "internalType": "uint256",
          "name": "count",
          "type": "uint256"
        }
      ],
      "name": "getTopFarmers",
      "outputs": [
        {
          "internalType": "address[]",
          "name": "farmers",
          "type": "address[]"
        },
        {
          "internalType": "uint256[]",
          "name": "harvests",
          "type": "uint256[]"
        }
      ],
      "stateMutability": "pure",
      "type": "function"
    },
    {
      "inputs": [],
      "name": "harvestAll",
      "outputs": [],
      "stateMutability": "nonpayable",
      "type": "function"
    },
    {
      "inputs": [
        {
          "internalType": "uint256",
          "name": "plantId",
          "type": "uint256"
        }
      ],
      "name": "harvestPlant",
      "outputs": [],
      "stateMutability": "nonpayable",
      "type": "function"
    },
    {
      "inputs": [],
      "name": "mintCost",
      "outputs": [
        {
          "internalType": "uint256",
          "name": "",
          "type": "uint256"
        }
      ],
      "stateMutability": "view",
      "type": "function"
    },
    {
      "inputs": [],
      "name": "owner",
      "outputs": [
        {
          "internalType": "address",
          "name": "",
          "type": "address"
        }
      ],
      "stateMutability": "view",
      "type": "function"
    },
    {
      "inputs": [],
      "name": "plantNFT",
      "outputs": [
        {
          "internalType": "contract PlantNFT",
          "name": "",
          "type": "address"
        }
      ],
      "stateMutability": "view",
      "type": "function"
    },
    {
      "inputs": [
        {
          "internalType": "string",
          "name": "name",
          "type": "string"
        },
        {
          "internalType": "string",
          "name": "species",
          "type": "string"
        }
      ],
      "name": "plantSeed",
      "outputs": [
        {
          "internalType": "uint256",
          "name": "",
          "type": "uint256"
        }
      ],
      "stateMutability": "payable",
      "type": "function"
    },
    {
      "inputs": [
        {
          "internalType": "address",
          "name": "",
          "type": "address"
        }
      ],
      "name": "totalHarvested",
      "outputs": [
        {
          "internalType": "uint256",
          "name": "",
          "type": "uint256"
        }
      ],
      "stateMutability": "view",
      "type": "function"
    },
    {
      "inputs": [
        {
          "internalType": "address",
          "name": "",
          "type": "address"
        }
      ],
      "name": "totalPlantsOwned",
      "outputs": [
        {
          "internalType": "uint256",
          "name": "",
          "type": "uint256"
        }
      ],
      "stateMutability": "view",
      "type": "function"
    },
    {
      "inputs": [],
      "name": "treasuryBalance",
      "outputs": [
        {
          "internalType": "uint256",
          "name": "",
          "type": "uint256"
        }
      ],
      "stateMutability": "view",
      "type": "function"
    },
    {
      "inputs": [
        {
          "internalType": "uint256",
          "name": "newCost",
          "type": "uint256"
        }
      ],
      "name": "updateMintCost",
      "outputs": [],
      "stateMutability": "nonpayable",
      "type": "function"
    },
    {
      "inputs": [
        {
          "internalType": "uint256",
          "name": "plantId",
          "type": "uint256"
        }
      ],
      "name": "useFertilizer",
      "outputs": [],
      "stateMutability": "nonpayable",
      "type": "function"
    },
    {
      "inputs": [
        {
          "internalType": "uint256",
          "name": "plantId",
          "type": "uint256"
        }
      ],
      "name": "waterPlant",
      "outputs": [],
      "stateMutability": "nonpayable",
      "type": "function"
    },
    {
      "inputs": [],
      "name": "withdraw",
      "outputs": [],
      "stateMutability": "nonpayable",
      "type": "function"
    }
  ],
  "bytecode": "0x60e060405266038d7ea4c6800060015534801561001a575f5ffd5b506040516115fb3803806115fb83398101604081905261003991610082565b6001600160a01b0392831660805290821660a0521660c0525f80546001600160a01b031916331790556100c2565b80516001600160a01b038116811461007d575f5ffd5b919050565b5f5f5f60608486031215610094575f5ffd5b61009d84610067565b92506100ab60208501610067565b91506100b960408501610067565b90509250925092565b60805160a05160c0516114b46101475f395f81816103b20152610c2101525f818161034b0152818161045a015281816105c3015281816107ab01528181610855015281816108e40152818161097d01528181610a4d01528181610af201528181610b7501528181610c780152610d1f01525f81816103e501526104e501526114b45ff3fe608060405260043610610110575f3560e01c80638da5cb5b1161009d578063b9aaf49811610062578063b9aaf4981461036d578063bdb4b8481461038c578063d5076093146103a1578063db61d65c146103d4578063e38f844814610407575f5ffd5b80638da5cb5b146102a65780638ed955b9146102dc5780639886bcfa146102f05780639c4ea8691461030f578063abf084a31461033a575f5ffd5b80632d56cd84116100e35780632d56cd84146101d35780632e1673c9146101fe578063313dab20146102475780633ccfd60b1461025c57806359c5186214610270575f5ffd5b80631aff30dd146101145780631e5e821f1461016457806320a2b1ec1461018557806328d911fb146101b2575b5f5ffd5b34801561011f575f5ffd5b50610128610426565b60405161015b91908151815260208083015190820152604080830151908201526060918201519181019190915260800190565b60405180910390f35b610177610172366004611113565b610571565b60405190815260200161015b565b348015610190575f5ffd5b506101a461019f366004611178565b610685565b60405161015b92919061118f565b3480156101bd575f5ffd5b506101d16101cc366004611178565b610717565b005b3480156101de575f5ffd5b506101776101ed36600461122c565b60036020525f908152604090205481565b348015610209575f5ffd5b50610237610218366004611247565b600460209081525f928352604080842090915290825290205460ff1681565b604051901515815260200161015b565b348015610252575f5ffd5b5061017760065481565b348015610267575f5ffd5b506101d1610745565b34801561027b575f5ffd5b5061017761028a366004611247565b600560209081525f928352604080842090915290825290205481565b3480156102b1575f5ffd5b505f546102c4906001600160a01b031681565b6040516001600160a01b03909116815260200161015b565b3480156102e7575f5ffd5b506101d16107a8565b3480156102fb575f5ffd5b506101d161030a366004611178565b610a2d565b34801561031a575f5ffd5b5061017761032936600461122c565b60026020525f908152604090205481565b348015610345575f5ffd5b506102c47f000000000000000000000000000000000000000000000000000000000000000081565b348015610378575f5ffd5b506101d1610387366004611178565b610b55565b348015610397575f5ffd5b5061017760015481565b3480156103ac575f5ffd5b506102c47f000000000000000000000000000000000000000000000000000000000000000081565b3480156103df575f5ffd5b506102c47f000000000000000000000000000000000000000000000000000000000000000081565b348015610412575f5ffd5b506101d1610421366004611178565b610c58565b61044d60405180608001604052805f81526020015f81526020015f81526020015f81525090565b60405180608001604052807f00000000000000000000000000000000000000000000000000000000000000006001600160a01b03166375794a3c6040518163ffffffff1660e01b8152600401602060405180830381865afa1580156104b4573d5f5f3e3d5ffd5b505050506040513d601f19601f820116820180604052508101906104d89190611281565b81526020015f81526020017f00000000000000000000000000000000000000000000000000000000000000006001600160a01b03166318160ddd6040518163ffffffff1660e01b8152600401602060405180830381865afa15801561053f573d5f5f3e3d5ffd5b505050506040513d601f19601f820116820180604052508101906105639190611281565b81526020015f815250905090565b5f6001543410156105c05760405162461bcd60e51b8152602060048201526014602482015273125b9cdd59999a58da595b9d081c185e5b595b9d60621b60448201526064015b60405180910390fd5b5f7f00000000000000000000000000000000000000000000000000000000000000006001600160a01b031663d5d0c0a23486866040518463ffffffff1660e01b81526004016106109291906112c6565b60206040518083038185885af115801561062c573d5f5f3e3d5ffd5b50505050506040513d601f19601f820116820180604052508101906106519190611281565b335f90815260036020526040812080549293509061066e83611307565b919050555061067c33610dc7565b90505b92915050565b6060808267ffffffffffffffff8111156106a1576106a161102c565b6040519080825280602002602001820160405280156106ca578160200160208202803683370190505b5091508267ffffffffffffffff8111156106e6576106e661102c565b60405190808252806020026020018201604052801561070f578160200160208202803683370190505b509050915091565b5f546001600160a01b031633146107405760405162461bcd60e51b81526004016105b79061131f565b600155565b5f546001600160a01b0316331461076e5760405162461bcd60e51b81526004016105b79061131f565b5f80546040516001600160a01b03909116914780156108fc02929091818181858888f193505050501580156107a5573d5f5f3e3d5ffd5b50565b5f7f00000000000000000000000000000000000000000000000000000000000000006001600160a01b03166375794a3c6040518163ffffffff1660e01b8152600401602060405180830381865afa158015610805573d5f5f3e3d5ffd5b505050506040513d601f19601f820116820180604052508101906108299190611281565b90505f5b81811015610a23576040516331a9108f60e11b81526004810182905233906001600160a01b037f00000000000000000000000000000000000000000000000000000000000000001690636352211e90602401602060405180830381865afa15801561089a573d5f5f3e3d5ffd5b505050506040513d601f19601f820116820180604052508101906108be9190611342565b6001600160a01b031603610a1b5760405163ed0b1f5f60e01b8152600481018290525f907f00000000000000000000000000000000000000000000000000000000000000006001600160a01b03169063ed0b1f5f906024015f60405180830381865afa158015610930573d5f5f3e3d5ffd5b505050506040513d5f823e601f3d908101601f1916820160405261095791908101906113aa565b90508060600151600303610a1957604051631c71f08960e31b8152600481018390525f907f00000000000000000000000000000000000000000000000000000000000000006001600160a01b03169063e38f8448906024016020604051808303815f875af11580156109cb573d5f5f3e3d5ffd5b505050506040513d601f19601f820116820180604052508101906109ef9190611281565b335f90815260026020526040812080549293508392909190610a1290849061146b565b9091555050505b505b60010161082d565b506107a533610dc7565b6040516331a9108f60e11b81526004810182905233906001600160a01b037f00000000000000000000000000000000000000000000000000000000000000001690636352211e90602401602060405180830381865afa158015610a92573d5f5f3e3d5ffd5b505050506040513d601f19601f82011682018060405250810190610ab69190611342565b6001600160a01b031614610adc5760405162461bcd60e51b81526004016105b79061131f565b604051634c435e7d60e11b8152600481018290527f00000000000000000000000000000000000000000000000000000000000000006001600160a01b031690639886bcfa906024015b5f604051808303815f87803b158015610b3c575f5ffd5b505af1158015610b4e573d5f5f3e3d5ffd5b5050505050565b6040516331a9108f60e11b81526004810182905233906001600160a01b037f00000000000000000000000000000000000000000000000000000000000000001690636352211e90602401602060405180830381865afa158015610bba573d5f5f3e3d5ffd5b505050506040513d601f19601f82011682018060405250810190610bde9190611342565b6001600160a01b031614610c045760405162461bcd60e51b81526004016105b79061131f565b6040516395061acf60e01b815260048101829052600160248201527f00000000000000000000000000000000000000000000000000000000000000006001600160a01b0316906395061acf90604401610b25565b6040516331a9108f60e11b81526004810182905233906001600160a01b037f00000000000000000000000000000000000000000000000000000000000000001690636352211e90602401602060405180830381865afa158015610cbd573d5f5f3e3d5ffd5b505050506040513d601f19601f82011682018060405250810190610ce19190611342565b6001600160a01b031614610d075760405162461bcd60e51b81526004016105b79061131f565b604051631c71f08960e31b8152600481018290525f907f00000000000000000000000000000000000000000000000000000000000000006001600160a01b03169063e38f8448906024016020604051808303815f875af1158015610d6d573d5f5f3e3d5ffd5b505050506040513d601f19601f82011682018060405250810190610d919190611281565b335f90815260026020526040812080549293508392909190610db490849061146b565b90915550610dc3905033610dc7565b5050565b6001600160a01b0381165f908152600360205260409020546001148015610e1157506001600160a01b0381165f90815260046020908152604080832083805290915290205460ff16155b15610e8e576001600160a01b0381165f8181526004602090815260408083208380528252808320805460ff19166001179055838352600582528083208380528252808320429081905590519081529192917f4a6601ee750cec6b98251f26f4680f6937e0c3ce2f685306a708bdadf3fe66a5910160405180910390a35b6001600160a01b0381165f90815260036020526040902054600a148015610ed957506001600160a01b0381165f9081526004602090815260408083206001845290915290205460ff16155b15610f59576001600160a01b0381165f8181526004602090815260408083206001808552908352818420805460ff19168217905584845260058352818420818552835292819020429081905590519081529192917f4a6601ee750cec6b98251f26f4680f6937e0c3ce2f685306a708bdadf3fe66a5910160405180910390a35b6001600160a01b0381165f90815260026020526040902054683635c9adc5dea0000011801590610fac57506001600160a01b0381165f90815260046020818152604080842092845291905290205460ff16155b156107a5576001600160a01b0381165f8181526004602081815260408084208385528252808420805460ff1916600117905584845260058252808420838552825292839020429081905592519283529092917f4a6601ee750cec6b98251f26f4680f6937e0c3ce2f685306a708bdadf3fe66a5910160405180910390a350565b634e487b7160e01b5f52604160045260245ffd5b60405160c0810167ffffffffffffffff811182821017156110635761106361102c565b60405290565b604051601f8201601f1916810167ffffffffffffffff811182821017156110925761109261102c565b604052919050565b5f67ffffffffffffffff8211156110b3576110b361102c565b50601f01601f191660200190565b5f82601f8301126110d0575f5ffd5b81356110e36110de8261109a565b611069565b8181528460208386010111156110f7575f5ffd5b816020850160208301375f918101602001919091529392505050565b5f5f60408385031215611124575f5ffd5b823567ffffffffffffffff81111561113a575f5ffd5b611146858286016110c1565b925050602083013567ffffffffffffffff811115611162575f5ffd5b61116e858286016110c1565b9150509250929050565b5f60208284031215611188575f5ffd5b5035919050565b604080825283519082018190525f9060208501906060840190835b818110156111d15783516001600160a01b03168352602093840193909201916001016111aa565b5050838103602080860191909152855180835291810192508501905f5b8181101561120c5782518452602093840193909201916001016111ee565b50919695505050505050565b6001600160a01b03811681146107a5575f5ffd5b5f6020828403121561123c575f5ffd5b813561067c81611218565b5f5f60408385031215611258575f5ffd5b823561126381611218565b9150602083013560058110611276575f5ffd5b809150509250929050565b5f60208284031215611291575f5ffd5b5051919050565b5f81518084528060208401602086015e5f602082860101526020601f19601f83011685010191505092915050565b604081525f6112d86040830185611298565b82810360208401526112ea8185611298565b95945050505050565b634e487b7160e01b5f52601160045260245ffd5b5f60018201611318576113186112f3565b5060010190565b6020808252600990820152682737ba1037bbb732b960b91b604082015260600190565b5f60208284031215611352575f5ffd5b815161067c81611218565b5f82601f83011261136c575f5ffd5b815161137a6110de8261109a565b81815284602083860101111561138e575f5ffd5b8160208501602083015e5f918101602001919091529392505050565b5f602082840312156113ba575f5ffd5b815167ffffffffffffffff8111156113d0575f5ffd5b820160c081850312156113e1575f5ffd5b6113e9611040565b815167ffffffffffffffff8111156113ff575f5ffd5b61140b8682850161135d565b825250602082015167ffffffffffffffff811115611427575f5ffd5b6114338682850161135d565b60208301525060408281015190820152606080830151908201526080808301519082015260a091820151918101919091529392505050565b8082018082111561067f5761067f6112f356fea2646970667358221220ca26b4cb5edac988d43fca5af8f2c984ae017de25628fbf1f6d435a8099d66ff64736f6c634300081e0033",
  "linkReferences": {},
  "deployedLinkReferences": {},
  "immutableReferences": {
    "18721": [
      {
        "length": 32,
        "start": 997
      },
      {
        "length": 32,
        "start": 1253
      }
    ],
    "18724": [
      {
        "length": 32,
        "start": 843
      },
      {
        "length": 32,
        "start": 1114
      },
      {
        "length": 32,
        "start": 1475
      },
      {
        "length": 32,
        "start": 1963
      },
      {
        "length": 32,
        "start": 2133
      },
      {
        "length": 32,
        "start": 2276
      },
      {
        "length": 32,
        "start": 2429
      },
      {
        "length": 32,
        "start": 2637
      },
      {
        "length": 32,
        "start": 2802
      },
      {
        "length": 32,
        "start": 2933
      },
      {
        "length": 32,
        "start": 3192
      },
      {
        "length": 32,
        "start": 3359
      }
    ],
    "18727": [
      {
        "length": 32,
        "start": 946
      },
      {
        "length": 32,
        "start": 3105
      }
    ]
  },
  "inputSourceName": "project/contracts/LiskGarden.sol",
  "buildInfoId": "solc-0_8_30-5be25723e75a8d4078e3957b6e59c9205037a89f"
}