{
  "_format": "hh3-artifact-1",
  "contractName": "PlantNFT",
  "sourceName": "contracts/PlantNFT.sol",
  "abi": [
    {
      "inputs": [
        {
          "internalType": "address",
          "name": "gardenTokenAddress",
          "type": "address"
        }
      ],
      "stateMutability": "nonpayable",
      "type": "constructor"
    },
    {
      "inputs": [
        {
          "internalType": "address",
          "name": "sender",
          "type": "address"
        },
        {
          "internalType": "uint256",
          "name": "tokenId",
          "type": "uint256"
        },
        {
          "internalType": "address",
          "name": "owner",
          "type": "address"
        }
      ],
      "name": "ERC721IncorrectOwner",
      "type": "error"
    },
    {
      "inputs": [
        {
          "internalType": "address",
          "name": "operator",
          "type": "address"
        },
        {
          "internalType": "uint256",
          "name": "tokenId",
          "type": "uint256"
        }
      ],
      "name": "ERC721InsufficientApproval",
      "type": "error"
    },
    {
      "inputs": [
        {
          "internalType": "address",
          "name": "approver",
          "type": "address"
        }
      ],
      "name": "ERC721InvalidApprover",
      "type": "error"
    },
    {
      "inputs": [
        {
          "internalType": "address",
          "name": "operator",
          "type": "address"
        }
      ],
      "name": "ERC721InvalidOperator",
      "type": "error"
    },
    {
      "inputs": [
        {
          "internalType": "address",
          "name": "owner",
          "type": "address"
        }
      ],
      "name": "ERC721InvalidOwner",
      "type": "error"
    },
    {
      "inputs": [
        {
          "internalType": "address",
          "name": "receiver",
          "type": "address"
        }
      ],
      "name": "ERC721InvalidReceiver",
      "type": "error"
    },
    {
      "inputs": [
        {
          "internalType": "address",
          "name": "sender",
          "type": "address"
        }
      ],
      "name": "ERC721InvalidSender",
      "type": "error"
    },
    {
      "inputs": [
        {
          "internalType": "uint256",
          "name": "tokenId",
          "type": "uint256"
        }
      ],
      "name": "ERC721NonexistentToken",
      "type": "error"
    },
    {
      "inputs": [
        {
          "internalType": "address",
          "name": "owner",
          "type": "address"
        }
      ],
      "name": "OwnableInvalidOwner",
      "type": "error"
    },
    {
      "inputs": [
        {
          "internalType": "address",
          "name": "account",
          "type": "address"
        }
      ],
      "name": "OwnableUnauthorizedAccount",
      "type": "error"
    },
    {
      "anonymous": false,
      "inputs": [
        {
          "indexed": true,
          "internalType": "address",
          "name": "owner",
          "type": "address"
        },
        {
          "indexed": true,
          "internalType": "address",
          "name": "approved",
          "type": "address"
        },
        {
          "indexed": true,
          "internalType": "uint256",
          "name": "tokenId",
          "type": "uint256"
        }
      ],
      "name": "Approval",
      "type": "event"
    },
    {
      "anonymous": false,
      "inputs": [
        {
          "indexed": true,
          "internalType": "address",
          "name": "owner",
          "type": "address"
        },
        {
          "indexed": true,
          "internalType": "address",
          "name": "operator",
          "type": "address"
        },
        {
          "indexed": false,
          "internalType": "bool",
          "name": "approved",
          "type": "bool"
        }
      ],
      "name": "ApprovalForAll",
      "type": "event"
    },
    {
      "anonymous": false,
      "inputs": [
        {
          "indexed": true,
          "internalType": "address",
          "name": "owner",
          "type": "address"
        },
        {
          "indexed": true,
          "internalType": "uint256",
          "name": "plantId",
          "type": "uint256"
        },
        {
          "indexed": true,
          "internalType": "uint256",
          "name": "itemId",
          "type": "uint256"
        },
        {
          "indexed": false,
          "internalType": "uint8",
          "name": "itemType",
          "type": "uint8"
        }
      ],
      "name": "ItemUsed",
      "type": "event"
    },
    {
      "anonymous": false,
      "inputs": [
        {
          "indexed": true,
          "internalType": "address",
          "name": "previousOwner",
          "type": "address"
        },
        {
          "indexed": true,
          "internalType": "address",
          "name": "newOwner",
          "type": "address"
        }
      ],
      "name": "OwnershipTransferred",
      "type": "event"
    },
    {
      "anonymous": false,
      "inputs": [
        {
          "indexed": true,
          "internalType": "address",
          "name": "owner",
          "type": "address"
        },
        {
          "indexed": true,
          "internalType": "uint256",
          "name": "tokenId",
          "type": "uint256"
        },
        {
          "indexed": false,
          "internalType": "uint256",
          "name": "stage",
          "type": "uint256"
        }
      ],
      "name": "PlantGrown",
      "type": "event"
    },
    {
      "anonymous": false,
      "inputs": [
        {
          "indexed": true,
          "internalType": "address",
          "name": "owner",
          "type": "address"
        },
        {
          "indexed": true,
          "internalType": "uint256",
          "name": "tokenId",
          "type": "uint256"
        },
        {
          "indexed": false,
          "internalType": "uint256",
          "name": "rarity",
          "type": "uint256"
        },
        {
          "indexed": false,
          "internalType": "string",
          "name": "name",
          "type": "string"
        },
        {
          "indexed": false,
          "internalType": "string",
          "name": "species",
          "type": "string"
        }
      ],
      "name": "PlantMinted",
      "type": "event"
    },
    {
      "anonymous": false,
      "inputs": [
        {
          "indexed": true,
          "internalType": "address",
          "name": "from",
          "type": "address"
        },
        {
          "indexed": true,
          "internalType": "address",
          "name": "to",
          "type": "address"
        },
        {
          "indexed": true,
          "internalType": "uint256",
          "name": "tokenId",
          "type": "uint256"
        }
      ],
      "name": "Transfer",
      "type": "event"
    },
    {
      "inputs": [],
      "name": "HARVEST_COOLDOWN",
      "outputs": [
        {
          "internalType": "uint256",
          "name": "",
          "type": "uint256"
        }
      ],
      "stateMutability": "view",
      "type": "function"
    },
    {
      "inputs": [],
      "name": "MINT_COST",
      "outputs": [
        {
          "internalType": "uint256",
          "name": "",
          "type": "uint256"
        }
      ],
      "stateMutability": "view",
      "type": "function"
    },
    {
      "inputs": [],
      "name": "STAGE_DURATION",
      "outputs": [
        {
          "internalType": "uint256",
          "name": "",
          "type": "uint256"
        }
      ],
      "stateMutability": "view",
      "type": "function"
    },
    {
      "inputs": [],
      "name": "WATERINGS_PER_STAGE",
      "outputs": [
        {
          "internalType": "uint256",
          "name": "",
          "type": "uint256"
        }
      ],
      "stateMutability": "view",
      "type": "function"
    },
    {
      "inputs": [],
      "name": "WATER_COOLDOWN",
      "outputs": [
        {
          "internalType": "uint256",
          "name": "",
          "type": "uint256"
        }
      ],
      "stateMutability": "view",
      "type": "function"
    },
    {
      "inputs": [
        {
          "internalType": "address",
          "name": "to",
          "type": "address"
        },
        {
          "internalType": "uint256",
          "name": "tokenId",
          "type": "uint256"
        }
      ],
      "name": "approve",
      "outputs": [],
      "stateMutability": "nonpayable",
      "type": "function"
    },
    {
      "inputs": [
        {
          "internalType": "address",
          "name": "owner",
          "type": "address"
        }
      ],
      "name": "balanceOf",
      "outputs": [
        {
          "internalType": "uint256",
          "name": "",
          "type": "uint256"
        }
      ],
      "stateMutability": "view",
      "type": "function"
    },
    {
      "inputs": [
        {
          "internalType": "uint256",
          "name": "tokenId",
          "type": "uint256"
        }
      ],
      "name": "canGrow",
      "outputs": [
        {
          "internalType": "bool",
          "name": "",
          "type": "bool"
        }
      ],
      "stateMutability": "view",
      "type": "function"
    },
    {
      "inputs": [],
      "name": "gameItemsContract",
      "outputs": [
        {
          "internalType": "address",
          "name": "",
          "type": "address"
        }
      ],
      "stateMutability": "view",
      "type": "function"
    },
    {
      "inputs": [],
      "name": "gardenToken",
      "outputs": [
        {
          "internalType": "contract GardenToken",
          "name": "",
          "type": "address"
        }
      ],
      "stateMutability": "view",
      "type": "function"
    },
    {
      "inputs": [
        {
          "internalType": "uint256",
          "name": "tokenId",
          "type": "uint256"
        }
      ],
      "name": "getApproved",
      "outputs": [
        {
          "internalType": "address",
          "name": "",
          "type": "address"
        }
      ],
      "stateMutability": "view",
      "type": "function"
    },
    {
      "inputs": [
        {
          "internalType": "uint256",
          "name": "tokenId",
          "type": "uint256"
        }
      ],
      "name": "getPlant",
      "outputs": [
        {
          "components": [
            {
              "internalType": "string",
              "name": "name",
              "type": "string"
            },
            {
              "internalType": "string",
              "name": "species",
              "type": "string"
            },
            {
              "internalType": "uint256",
              "name": "rarity",
              "type": "uint256"
            },
            {
              "internalType": "uint256",
              "name": "stage",
              "type": "uint256"
            },
            {
              "internalType": "uint256",
              "name": "lastWatered",
              "type": "uint256"
            },
            {
              "internalType": "uint256",
              "name": "lastGrowthTime",
              "type": "uint256"
            }
          ],
          "internalType": "struct PlantNFT.Plant",
          "name": "",
          "type": "tuple"
        }
      ],
      "stateMutability": "view",
      "type": "function"
    },
    {
      "inputs": [
        {
          "internalType": "uint256",
          "name": "tokenId",
          "type": "uint256"
        }
      ],
      "name": "growPlant",
      "outputs": [],
      "stateMutability": "nonpayable",
      "type": "function"
    },
    {
      "inputs": [
        {
          "internalType": "uint256",
          "name": "tokenId",
          "type": "uint256"
        }
      ],
      "name": "harvestPlant",
      "outputs": [
        {
          "internalType": "uint256",
          "name": "",
          "type": "uint256"
        }
      ],
      "stateMutability": "nonpayable",
      "type": "function"
    },
    {
      "inputs": [
        {
          "internalType": "address",
          "name": "owner",
          "type": "address"
        },
        {
          "internalType": "address",
          "name": "operator",
          "type": "address"
        }
      ],
      "name": "isApprovedForAll",
      "outputs": [
        {
          "internalType": "bool",
          "name": "",
          "type": "bool"
        }
      ],
      "stateMutability": "view",
      "type": "function"
    },
    {
      "inputs": [
        {
          "internalType": "uint256",
          "name": "",
          "type": "uint256"
        }
      ],
      "name": "lastHarvestTime",
      "outputs": [
        {
          "internalType": "uint256",
          "name": "",
          "type": "uint256"
        }
      ],
      "stateMutability": "view",
      "type": "function"
    },
    {
      "inputs": [
        {
          "internalType": "string",
          "name": "name",
          "type": "string"
        },
        {
          "internalType": "string",
          "name": "species",
          "type": "string"
        }
      ],
      "name": "mintPlant",
      "outputs": [
        {
          "internalType": "uint256",
          "name": "",
          "type": "uint256"
        }
      ],
      "stateMutability": "payable",
      "type": "function"
    },
    {
      "inputs": [],
      "name": "name",
      "outputs": [
        {
          "internalType": "string",
          "name": "",
          "type": "string"
        }
      ],
      "stateMutability": "view",
      "type": "function"
    },
    {
      "inputs": [],
      "name": "nextTokenId",
      "outputs": [
        {
          "internalType": "uint256",
          "name": "",
          "type": "uint256"
        }
      ],
      "stateMutability": "view",
      "type": "function"
    },
    {
      "inputs": [],
      "name": "owner",
      "outputs": [
        {
          "internalType": "address",
          "name": "",
          "type": "address"
        }
      ],
      "stateMutability": "view",
      "type": "function"
    },
    {
      "inputs": [
        {
          "internalType": "uint256",
          "name": "tokenId",
          "type": "uint256"
        }
      ],
      "name": "ownerOf",
      "outputs": [
        {
          "internalType": "address",
          "name": "",
          "type": "address"
        }
      ],
      "stateMutability": "view",
      "type": "function"
    },
    {
      "inputs": [
        {
          "internalType": "uint256",
          "name": "",
          "type": "uint256"
        }
      ],
      "name": "plants",
      "outputs": [
        {
          "internalType": "string",
          "name": "name",
          "type": "string"
        },
        {
          "internalType": "string",
          "name": "species",
          "type": "string"
        },
        {
          "internalType": "uint256",
          "name": "rarity",
          "type": "uint256"
        },
        {
          "internalType": "uint256",
          "name": "stage",
          "type": "uint256"
        },
        {
          "internalType": "uint256",
          "name": "lastWatered",
          "type": "uint256"
        },
        {
          "internalType": "uint256",
          "name": "lastGrowthTime",
          "type": "uint256"
        }
      ],
      "stateMutability": "view",
      "type": "function"
    },
    {
      "inputs": [],
      "name": "renounceOwnership",
      "outputs": [],
      "stateMutability": "nonpayable",
      "type": "function"
    },
    {
      "inputs": [
        {
          "internalType": "address",
          "name": "from",
          "type": "address"
        },
        {
          "internalType": "address",
          "name": "to",
          "type": "address"
        },
        {
          "internalType": "uint256",
          "name": "tokenId",
          "type": "uint256"
        }
      ],
      "name": "safeTransferFrom",
      "outputs": [],
      "stateMutability": "nonpayable",
      "type": "function"
    },
    {
      "inputs": [
        {
          "internalType": "address",
          "name": "from",
          "type": "address"
        },
        {
          "internalType": "address",
          "name": "to",
          "type": "address"
        },
        {
          "internalType": "uint256",
          "name": "tokenId",
          "type": "uint256"
        },
        {
          "internalType": "bytes",
          "name": "data",
          "type": "bytes"
        }
      ],
      "name": "safeTransferFrom",
      "outputs": [],
      "stateMutability": "nonpayable",
      "type": "function"
    },
    {
      "inputs": [
        {
          "internalType": "address",
          "name": "operator",
          "type": "address"
        },
        {
          "internalType": "bool",
          "name": "approved",
          "type": "bool"
        }
      ],
      "name": "setApprovalForAll",
      "outputs": [],
      "stateMutability": "nonpayable",
      "type": "function"
    },
    {
      "inputs": [
        {
          "internalType": "address",
          "name": "_gameItemsContract",
          "type": "address"
        }
      ],
      "name": "setGameItemsContract",
      "outputs": [],
      "stateMutability": "nonpayable",
      "type": "function"
    },
    {
      "inputs": [
        {
          "internalType": "bytes4",
          "name": "interfaceId",
          "type": "bytes4"
        }
      ],
      "name": "supportsInterface",
      "outputs": [
        {
          "internalType": "bool",
          "name": "",
          "type": "bool"
        }
      ],
      "stateMutability": "view",
      "type": "function"
    },
    {
      "inputs": [],
      "name": "symbol",
      "outputs": [
        {
          "internalType": "string",
          "name": "",
          "type": "string"
        }
      ],
      "stateMutability": "view",
      "type": "function"
    },
    {
      "inputs": [
        {
          "internalType": "uint256",
          "name": "tokenId",
          "type": "uint256"
        }
      ],
      "name": "tokenURI",
      "outputs": [
        {
          "internalType": "string",
          "name": "",
          "type": "string"
        }
      ],
      "stateMutability": "view",
      "type": "function"
    },
    {
      "inputs": [
        {
          "internalType": "address",
          "name": "from",
          "type": "address"
        },
        {
          "internalType": "address",
          "name": "to",
          "type": "address"
        },
        {
          "internalType": "uint256",
          "name": "tokenId",
          "type": "uint256"
        }
      ],
      "name": "transferFrom",
      "outputs": [],
      "stateMutability": "nonpayable",
      "type": "function"
    },
    {
      "inputs": [
        {
          "internalType": "address",
          "name": "newOwner",
          "type": "address"
        }
      ],
      "name": "transferOwnership",
      "outputs": [],
      "stateMutability": "nonpayable",
      "type": "function"
    },
    {
      "inputs": [
        {
          "internalType": "uint256",
          "name": "plantId",
          "type": "uint256"
        },
        {
          "internalType": "uint256",
          "name": "itemId",
          "type": "uint256"
        }
      ],
      "name": "useItemOnPlant",
      "outputs": [],
      "stateMutability": "nonpayable",
      "type": "function"
    },
    {
      "inputs": [
        {
          "internalType": "uint256",
          "name": "",
          "type": "uint256"
        }
      ],
      "name": "waterCount",
      "outputs": [
        {
          "internalType": "uint256",
          "name": "",
          "type": "uint256"
        }
      ],
      "stateMutability": "view",
      "type": "function"
    },
    {
      "inputs": [
        {
          "internalType": "uint256",
          "name": "tokenId",
          "type": "uint256"
        }
      ],
      "name": "waterPlant",
      "outputs": [],
      "stateMutability": "nonpayable",
      "type": "function"
    }
  ],
  "bytecode": "0x608060405234801561000f575f5ffd5b5060405161298338038061298383398101604081905261002e91610142565b3360405180604001604052806011815260200170131a5cdac811d85c99195b88141b185b9d607a1b81525060405180604001604052806005815260200164141310539560da1b815250815f90816100859190610207565b5060016100928282610207565b5050506001600160a01b0381166100c257604051631e4fbdf760e01b81525f600482015260240160405180910390fd5b6100cb816100f1565b50600880546001600160a01b0319166001600160a01b03929092169190911790556102c1565b600680546001600160a01b038381166001600160a01b0319831681179093556040519116919082907f8be0079c531659141344cd1fd0a4f28419497f9722a3daafe3b4186f6b6457e0905f90a35050565b5f60208284031215610152575f5ffd5b81516001600160a01b0381168114610168575f5ffd5b9392505050565b634e487b7160e01b5f52604160045260245ffd5b600181811c9082168061019757607f821691505b6020821081036101b557634e487b7160e01b5f52602260045260245ffd5b50919050565b601f82111561020257805f5260205f20601f840160051c810160208510156101e05750805b601f840160051c820191505b818110156101ff575f81556001016101ec565b50505b505050565b81516001600160401b038111156102205761022061016f565b6102348161022e8454610183565b846101bb565b6020601f821160018114610266575f831561024f5750848201515b5f19600385901b1c1916600184901b1784556101ff565b5f84815260208120601f198516915b828110156102955787850151825560209485019460019092019101610275565b50848210156102b257868401515f19600387901b60f8161c191681555b50505050600190811b01905550565b6126b5806102ce5f395ff3fe6080604052600436106101fc575f3560e01c80638dd2361c11610113578063db61d65c1161009d578063e985e9c51161006d578063e985e9c5146105ba578063ed0b1f5f146105d9578063f0b7c59d14610381578063f14af0f614610605578063f2fde38b14610624575f5ffd5b8063db61d65c14610548578063e24432a114610567578063e303d87d14610586578063e38f84481461059b575f5ffd5b8063b88d4fde116100e3578063b88d4fde146104c9578063c53b8258146104e8578063c662e481146104fc578063c87b56dd14610516578063d5d0c0a214610535575f5ffd5b80638dd2361c1461044657806395d89b41146104775780639886bcfa1461048b578063a22cb465146104aa575f5ffd5b806342842e0e116101945780636352211e116101645780636352211e146103c257806370a08231146103e1578063715018a61461040057806375794a3c146104145780638da5cb5b14610429575f5ffd5b806342842e0e14610329578063497bbaaf1461034857806351f9efde146103815780635bbb3f7a14610397575f5ffd5b80630b67772f116101cf5780630b67772f146102ad5780630e4981f0146102cc5780630e97b8c2146102eb57806323b872dd1461030a575f5ffd5b806301ffc9a71461020057806306fdde0314610234578063081812fc14610255578063095ea7b31461028c575b5f5ffd5b34801561020b575f5ffd5b5061021f61021a366004611ff3565b610643565b60405190151581526020015b60405180910390f35b34801561023f575f5ffd5b50610248610694565b60405161022b919061203c565b348015610260575f5ffd5b5061027461026f36600461204e565b610723565b6040516001600160a01b03909116815260200161022b565b348015610297575f5ffd5b506102ab6102a6366004612080565b61074a565b005b3480156102b8575f5ffd5b50600c54610274906001600160a01b031681565b3480156102d7575f5ffd5b5061021f6102e636600461204e565b610759565b3480156102f6575f5ffd5b506102ab6103053660046120a8565b610911565b348015610315575f5ffd5b506102ab6103243660046120c1565b610996565b348015610334575f5ffd5b506102ab6103433660046120c1565b610a1f565b348015610353575f5ffd5b5061037361036236600461204e565b600b6020525f908152604090205481565b60405190815260200161022b565b34801561038c575f5ffd5b506103736201518081565b3480156103a2575f5ffd5b506103736103b136600461204e565b600a6020525f908152604090205481565b3480156103cd575f5ffd5b506102746103dc36600461204e565b610a3e565b3480156103ec575f5ffd5b506103736103fb3660046120a8565b610a48565b34801561040b575f5ffd5b506102ab610a8d565b34801561041f575f5ffd5b5061037360075481565b348015610434575f5ffd5b506006546001600160a01b0316610274565b348015610451575f5ffd5b5061046561046036600461204e565b610aa0565b60405161022b969594939291906120fb565b348015610482575f5ffd5b50610248610bdf565b348015610496575f5ffd5b506102ab6104a536600461204e565b610bee565b3480156104b5575f5ffd5b506102ab6104c4366004612145565b610cbe565b3480156104d4575f5ffd5b506102ab6104e3366004612209565b610cc9565b3480156104f3575f5ffd5b50610373600381565b348015610507575f5ffd5b5061037366038d7ea4c6800081565b348015610521575f5ffd5b5061024861053036600461204e565b610ce1565b61037361054336600461229e565b610d52565b348015610553575f5ffd5b50600854610274906001600160a01b031681565b348015610572575f5ffd5b506102ab610581366004612303565b610ea9565b348015610591575f5ffd5b5061037361708081565b3480156105a6575f5ffd5b506103736105b536600461204e565b6111f1565b3480156105c5575f5ffd5b5061021f6105d4366004612323565b6114c7565b3480156105e4575f5ffd5b506105f86105f336600461204e565b6114f4565b60405161022b9190612354565b348015610610575f5ffd5b506102ab61061f36600461204e565b6116e9565b34801561062f575f5ffd5b506102ab61063e3660046120a8565b6117e8565b5f6001600160e01b031982166380ac58cd60e01b148061067357506001600160e01b03198216635b5e139f60e01b145b8061068e57506301ffc9a760e01b6001600160e01b03198316145b92915050565b60605f80546106a2906123c1565b80601f01602080910402602001604051908101604052809291908181526020018280546106ce906123c1565b80156107195780601f106106f057610100808354040283529160200191610719565b820191905f5260205f20905b8154815290600101906020018083116106fc57829003601f168201915b5050505050905090565b5f61072d82611825565b505f828152600460205260409020546001600160a01b031661068e565b61075582823361185d565b5050565b5f81815260096020526040808220815160c0810190925280548392919082908290610783906123c1565b80601f01602080910402602001604051908101604052809291908181526020018280546107af906123c1565b80156107fa5780601f106107d1576101008083540402835291602001916107fa565b820191905f5260205f20905b8154815290600101906020018083116107dd57829003601f168201915b50505050508152602001600182018054610813906123c1565b80601f016020809104026020016040519081016040528092919081815260200182805461083f906123c1565b801561088a5780601f106108615761010080835404028352916020019161088a565b820191905f5260205f20905b81548152906001019060200180831161086d57829003601f168201915b5050505050815260200160028201548152602001600382015481526020016004820154815260200160058201548152505090505f620151808260a001516108d1919061240d565b5f858152600a60205260409020544291909110801592506003909110159082906108f85750805b8015610908575060038360600151105b95945050505050565b61091961186a565b6001600160a01b0381166109745760405162461bcd60e51b815260206004820152601860248201527f496e76616c696420636f6e74726163742061646472657373000000000000000060448201526064015b60405180910390fd5b600c80546001600160a01b0319166001600160a01b0392909216919091179055565b6001600160a01b0382166109bf57604051633250574960e11b81525f600482015260240161096b565b5f6109cb838333611897565b9050836001600160a01b0316816001600160a01b031614610a19576040516364283d7b60e01b81526001600160a01b038086166004830152602482018490528216604482015260640161096b565b50505050565b610a3983838360405180602001604052805f815250610cc9565b505050565b5f61068e82611825565b5f6001600160a01b038216610a72576040516322718ad960e21b81525f600482015260240161096b565b506001600160a01b03165f9081526003602052604090205490565b610a9561186a565b610a9e5f611989565b565b60096020525f9081526040902080548190610aba906123c1565b80601f0160208091040260200160405190810160405280929190818152602001828054610ae6906123c1565b8015610b315780601f10610b0857610100808354040283529160200191610b31565b820191905f5260205f20905b815481529060010190602001808311610b1457829003601f168201915b505050505090806001018054610b46906123c1565b80601f0160208091040260200160405190810160405280929190818152602001828054610b72906123c1565b8015610bbd5780601f10610b9457610100808354040283529160200191610bbd565b820191905f5260205f20905b815481529060010190602001808311610ba057829003601f168201915b5050505050908060020154908060030154908060040154908060050154905086565b6060600180546106a2906123c1565b33610bf882610a3e565b6001600160a01b031614610c1e5760405162461bcd60e51b815260040161096b90612420565b5f818152600960205260409020600481015415610c96576170808160040154610c47919061240d565b421015610c965760405162461bcd60e51b815260206004820152601860248201527f5761746572696e6720636f6f6c646f776e206163746976650000000000000000604482015260640161096b565b4260048201555f828152600a60205260408120805491610cb583612457565b91905055505050565b6107553383836119da565b610cd4848484610996565b610a193385858585611a78565b6060610cec82611825565b505f610d0260408051602081019091525f815290565b90505f815111610d205760405180602001604052805f815250610d4b565b80610d2a84611ba0565b604051602001610d3b929190612486565b6040516020818303038152906040525b9392505050565b5f66038d7ea4c68000341015610da15760405162461bcd60e51b8152602060048201526014602482015273125b9cdd59999a58da595b9d081c185e5b595b9d60621b604482015260640161096b565b5f610daa611c30565b600780549192505f919082610dbe83612457565b919050559050610dce3382611cda565b6040805160c081018252868152602080820187905260ff851682840152600160608301525f608083018190524260a084015284815260099091529190912081518190610e1a90826124de565b5060208201516001820190610e2f90826124de565b5060408201518160020155606082015181600301556080820151816004015560a0820151816005015590505080336001600160a01b03167f5ad7bc5d2a6c5a9bd579d6cc32485e5bb8fac84b842c36d7e3928034edc482dd848888604051610e9993929190612599565b60405180910390a3949350505050565b600c546001600160a01b0316610f015760405162461bcd60e51b815260206004820152601a60248201527f47616d654974656d7320636f6e7472616374206e6f7420736574000000000000604482015260640161096b565b33610f0b83610a3e565b6001600160a01b031614610f315760405162461bcd60e51b815260040161096b90612420565b5f82815260096020526040902060038082015410610f9b5760405162461bcd60e51b815260206004820152602160248201527f43616e6e6f7420757365206974656d73206f6e206d617475726520706c616e746044820152607360f81b606482015260840161096b565b600c54604051627eeac760e11b8152336004820152602481018490526001600160a01b0390911690600190829062fdd58e90604401602060405180830381865afa158015610feb573d5f5f3e3d5ffd5b505050506040513d601f19601f8201168201806040525081019061100f91906125d0565b101561105d5760405162461bcd60e51b815260206004820152601960248201527f496e73756666696369656e74206974656d2062616c616e636500000000000000604482015260640161096b565b5f6110696003856125e7565b611074906001612606565b90508060ff166001036110fb5760038360030154106110cc5760405162461bcd60e51b8152602060048201526014602482015273506c616e7420616c7265616479206d617475726560601b604482015260640161096b565b600383018054905f6110dd83612457565b90915550505f858152600a602052604081205542600584015561114c565b8060ff1660020361112f5760058360020154101561112a57600283018054905f61112483612457565b91905055505b61114c565b8060ff1660030361114c575f858152600a60205260409020600390555b604051637a94c56560e11b815233600482015260248101859052600160448201526001600160a01b0383169063f5298aca906064015f604051808303815f87803b158015611198575f5ffd5b505af11580156111aa573d5f5f3e3d5ffd5b505060405160ff8416815286925087915033907fc95f55fa5f5276838960e0ab809e0ec744bfce03d4ecce6a1ad43fab6d418be39060200160405180910390a45050505050565b5f336111fc83610a3e565b6001600160a01b0316146112225760405162461bcd60e51b815260040161096b90612420565b5f82815260096020526040808220815160c08101909252805482908290611248906123c1565b80601f0160208091040260200160405190810160405280929190818152602001828054611274906123c1565b80156112bf5780601f10611296576101008083540402835291602001916112bf565b820191905f5260205f20905b8154815290600101906020018083116112a257829003601f168201915b505050505081526020016001820180546112d8906123c1565b80601f0160208091040260200160405190810160405280929190818152602001828054611304906123c1565b801561134f5780601f106113265761010080835404028352916020019161134f565b820191905f5260205f20905b81548152906001019060200180831161133257829003601f168201915b50505050508152602001600282015481526020016003820154815260200160048201548152602001600582015481525050905080606001516003146113cc5760405162461bcd60e51b8152602060048201526013602482015272506c616e74206973206e6f74206d617475726560681b604482015260640161096b565b600854604080830151606084015191516309f6842360e11b81525f936001600160a01b0316926313ed08469261141092909190600401918252602082015260400190565b602060405180830381865afa15801561142b573d5f5f3e3d5ffd5b505050506040513d601f19601f8201168201806040525081019061144f91906125d0565b600854604051634d24848760e11b8152336004820152602481018390529192506001600160a01b031690639a49090e906044015f604051808303815f87803b158015611499575f5ffd5b505af11580156114ab573d5f5f3e3d5ffd5b5050505f94855250600b60205260409093204290555090919050565b6001600160a01b039182165f90815260056020908152604080832093909416825291909152205460ff1690565b6115296040518060c0016040528060608152602001606081526020015f81526020015f81526020015f81526020015f81525090565b5f828152600260205260409020546001600160a01b03166115835760405162461bcd60e51b8152602060048201526014602482015273141b185b9d08191bd95cc81b9bdd08195e1a5cdd60621b604482015260640161096b565b5f8281526009602052604090819020815160c081019092528054829082906115aa906123c1565b80601f01602080910402602001604051908101604052809291908181526020018280546115d6906123c1565b80156116215780601f106115f857610100808354040283529160200191611621565b820191905f5260205f20905b81548152906001019060200180831161160457829003601f168201915b5050505050815260200160018201805461163a906123c1565b80601f0160208091040260200160405190810160405280929190818152602001828054611666906123c1565b80156116b15780601f10611688576101008083540402835291602001916116b1565b820191905f5260205f20905b81548152906001019060200180831161169457829003601f168201915b505050505081526020016002820154815260200160038201548152602001600482015481526020016005820154815250509050919050565b6116f281610759565b61173e5760405162461bcd60e51b815260206004820152601b60248201527f47726f77746820726571756972656d656e7473206e6f74206d65740000000000604482015260640161096b565b3361174882610a3e565b6001600160a01b03161461176e5760405162461bcd60e51b815260040161096b90612420565b5f818152600960205260408120600381018054919261178c83612457565b90915550505f828152600a602090815260408083209290925542600584015560038301549151918252839133917faca6013c4411bcf1ad10574e80e6dfa958272a85370ae6fdb153a75a90e57729910160405180910390a35050565b6117f061186a565b6001600160a01b03811661181957604051631e4fbdf760e01b81525f600482015260240161096b565b61182281611989565b50565b5f818152600260205260408120546001600160a01b03168061068e57604051637e27328960e01b81526004810184905260240161096b565b610a398383836001611d3b565b6006546001600160a01b03163314610a9e5760405163118cdaa760e01b815233600482015260240161096b565b5f828152600260205260408120546001600160a01b03908116908316156118c3576118c3818486611e3f565b6001600160a01b038116156118fd576118de5f855f5f611d3b565b6001600160a01b0381165f90815260036020526040902080545f190190555b6001600160a01b0385161561192b576001600160a01b0385165f908152600360205260409020805460010190555b5f8481526002602052604080822080546001600160a01b0319166001600160a01b0389811691821790925591518793918516917fddf252ad1be2c89b69c2b068fc378daa952ba7f163c4a11628f55a4df523b3ef91a4949350505050565b600680546001600160a01b038381166001600160a01b0319831681179093556040519116919082907f8be0079c531659141344cd1fd0a4f28419497f9722a3daafe3b4186f6b6457e0905f90a35050565b6001600160a01b038216611a0c57604051630b61174360e31b81526001600160a01b038316600482015260240161096b565b6001600160a01b038381165f81815260056020908152604080832094871680845294825291829020805460ff191686151590811790915591519182527f17307eab39ab6107e8899845ad3d59bd9653f200f220920489ca2b5937696c31910160405180910390a3505050565b6001600160a01b0383163b15611b9957604051630a85bd0160e11b81526001600160a01b0384169063150b7a0290611aba90889088908790879060040161261f565b6020604051808303815f875af1925050508015611af4575060408051601f3d908101601f19168201909252611af191810190612651565b60015b611b5b573d808015611b21576040519150601f19603f3d011682016040523d82523d5f602084013e611b26565b606091505b5080515f03611b5357604051633250574960e11b81526001600160a01b038516600482015260240161096b565b805160208201fd5b6001600160e01b03198116630a85bd0160e11b14611b9757604051633250574960e11b81526001600160a01b038516600482015260240161096b565b505b5050505050565b60605f611bac83611ea3565b60010190505f8167ffffffffffffffff811115611bcb57611bcb61217e565b6040519080825280601f01601f191660200182016040528015611bf5576020820181803683370190505b5090508181016020015b5f19016f181899199a1a9b1b9c1cb0b131b232b360811b600a86061a8153600a8504945084611bff57509392505050565b5f806064611c3f60014361266c565b60408051914060208301526bffffffffffffffffffffffff193360601b1690820152426054820152607401604051602081830303815290604052805190602001205f1c611c8c91906125e7565b9050603c811015611c9f57600191505090565b6055811015611cb057600291505090565b605f811015611cc157600391505090565b6063811015611cd257600491505090565b600591505090565b6001600160a01b038216611d0357604051633250574960e11b81525f600482015260240161096b565b5f611d0f83835f611897565b90506001600160a01b03811615610a39576040516339e3563760e11b81525f600482015260240161096b565b8080611d4f57506001600160a01b03821615155b15611e10575f611d5e84611825565b90506001600160a01b03831615801590611d8a5750826001600160a01b0316816001600160a01b031614155b8015611d9d5750611d9b81846114c7565b155b15611dc65760405163a9fbf51f60e01b81526001600160a01b038416600482015260240161096b565b8115611e0e5783856001600160a01b0316826001600160a01b03167f8c5be1e5ebec7d5bd14f71427d1e84f3dd0314c0f7b2291e5b200ac8c7c3b92560405160405180910390a45b505b50505f90815260046020526040902080546001600160a01b0319166001600160a01b0392909216919091179055565b611e4a838383611f7a565b610a39576001600160a01b038316611e7857604051637e27328960e01b81526004810182905260240161096b565b60405163177e802f60e01b81526001600160a01b03831660048201526024810182905260440161096b565b5f8072184f03e93ff9f4daa797ed6e38ed64bf6a1f0160401b8310611ee15772184f03e93ff9f4daa797ed6e38ed64bf6a1f0160401b830492506040015b6d04ee2d6d415b85acef81000000008310611f0d576d04ee2d6d415b85acef8100000000830492506020015b662386f26fc100008310611f2b57662386f26fc10000830492506010015b6305f5e1008310611f43576305f5e100830492506008015b6127108310611f5757612710830492506004015b60648310611f69576064830492506002015b600a831061068e5760010192915050565b5f6001600160a01b03831615801590611fd65750826001600160a01b0316846001600160a01b03161480611fb35750611fb384846114c7565b80611fd657505f828152600460205260409020546001600160a01b038481169116145b949350505050565b6001600160e01b031981168114611822575f5ffd5b5f60208284031215612003575f5ffd5b8135610d4b81611fde565b5f81518084528060208401602086015e5f602082860101526020601f19601f83011685010191505092915050565b602081525f610d4b602083018461200e565b5f6020828403121561205e575f5ffd5b5035919050565b80356001600160a01b038116811461207b575f5ffd5b919050565b5f5f60408385031215612091575f5ffd5b61209a83612065565b946020939093013593505050565b5f602082840312156120b8575f5ffd5b610d4b82612065565b5f5f5f606084860312156120d3575f5ffd5b6120dc84612065565b92506120ea60208501612065565b929592945050506040919091013590565b60c081525f61210d60c083018961200e565b828103602084015261211f818961200e565b9150508560408301528460608301528360808301528260a0830152979650505050505050565b5f5f60408385031215612156575f5ffd5b61215f83612065565b915060208301358015158114612173575f5ffd5b809150509250929050565b634e487b7160e01b5f52604160045260245ffd5b5f5f67ffffffffffffffff8411156121ac576121ac61217e565b50604051601f19601f85018116603f0116810181811067ffffffffffffffff821117156121db576121db61217e565b6040528381529050808284018510156121f2575f5ffd5b838360208301375f60208583010152509392505050565b5f5f5f5f6080858703121561221c575f5ffd5b61222585612065565b935061223360208601612065565b925060408501359150606085013567ffffffffffffffff811115612255575f5ffd5b8501601f81018713612265575f5ffd5b61227487823560208401612192565b91505092959194509250565b5f82601f83011261228f575f5ffd5b610d4b83833560208501612192565b5f5f604083850312156122af575f5ffd5b823567ffffffffffffffff8111156122c5575f5ffd5b6122d185828601612280565b925050602083013567ffffffffffffffff8111156122ed575f5ffd5b6122f985828601612280565b9150509250929050565b5f5f60408385031215612314575f5ffd5b50508035926020909101359150565b5f5f60408385031215612334575f5ffd5b61233d83612065565b915061234b60208401612065565b90509250929050565b602081525f825160c0602084015261236f60e084018261200e565b90506020840151601f1984830301604085015261238c828261200e565b9150506040840151606084015260608401516080840152608084015160a084015260a084015160c08401528091505092915050565b600181811c908216806123d557607f821691505b6020821081036123f357634e487b7160e01b5f52602260045260245ffd5b50919050565b634e487b7160e01b5f52601160045260245ffd5b8082018082111561068e5761068e6123f9565b6020808252601a908201527f4e6f7420746865206f776e6572206f662074686520706c616e74000000000000604082015260600190565b5f60018201612468576124686123f9565b5060010190565b5f81518060208401855e5f93019283525090919050565b5f611fd6612494838661246f565b8461246f565b601f821115610a3957805f5260205f20601f840160051c810160208510156124bf5750805b601f840160051c820191505b81811015611b99575f81556001016124cb565b815167ffffffffffffffff8111156124f8576124f861217e565b61250c8161250684546123c1565b8461249a565b6020601f82116001811461253e575f83156125275750848201515b5f19600385901b1c1916600184901b178455611b99565b5f84815260208120601f198516915b8281101561256d578785015182556020948501946001909201910161254d565b508482101561258a57868401515f19600387901b60f8161c191681555b50505050600190811b01905550565b60ff84168152606060208201525f6125b4606083018561200e565b82810360408401526125c6818561200e565b9695505050505050565b5f602082840312156125e0575f5ffd5b5051919050565b5f8261260157634e487b7160e01b5f52601260045260245ffd5b500690565b60ff818116838216019081111561068e5761068e6123f9565b6001600160a01b03858116825284166020820152604081018390526080606082018190525f906125c69083018461200e565b5f60208284031215612661575f5ffd5b8151610d4b81611fde565b8181038181111561068e5761068e6123f956fea2646970667358221220aea772010bdab7a2e144a6ad75a4bc074024336ee024375c2819fc000451ffaa64736f6c634300081e0033",
  "linkReferences": {},
  "deployedLinkReferences": {},
  "immutableReferences": {},
  "inputSourceName": "project/contracts/PlantNFT.sol",
  "buildInfoId": "solc-0_8_30-e1f835877d6f3c0d21123c8d17effebd9f3ebbed"
}