{
  "_format": "hh3-artifact-1",
  "contractName": "GardenToken",
  "sourceName": "contracts/GardenToken.sol",
  "abi": [
    {
      "inputs": [
        {
          "internalType": "address",
          "name": "_gameContract",
          "type": "address"
        },
        {
          "internalType": "uint256",
          "name": "initialSupply",
          "type": "uint256"
        }
      ],
      "stateMutability": "nonpayable",
      "type": "constructor"
    },
    {
      "inputs": [
        {
          "internalType": "address",
          "name": "spender",
          "type": "address"
        },
        {
          "internalType": "uint256",
          "name": "allowance",
          "type": "uint256"
        },
        {
          "internalType": "uint256",
          "name": "needed",
          "type": "uint256"
        }
      ],
      "name": "ERC20InsufficientAllowance",
      "type": "error"
    },
    {
      "inputs": [
        {
          "internalType": "address",
          "name": "sender",
          "type": "address"
        },
        {
          "internalType": "uint256",
          "name": "balance",
          "type": "uint256"
        },
        {
          "internalType": "uint256",
          "name": "needed",
          "type": "uint256"
        }
      ],
      "name": "ERC20InsufficientBalance",
      "type": "error"
    },
    {
      "inputs": [
        {
          "internalType": "address",
          "name": "approver",
          "type": "address"
        }
      ],
      "name": "ERC20InvalidApprover",
      "type": "error"
    },
    {
      "inputs": [
        {
          "internalType": "address",
          "name": "receiver",
          "type": "address"
        }
      ],
      "name": "ERC20InvalidReceiver",
      "type": "error"
    },
    {
      "inputs": [
        {
          "internalType": "address",
          "name": "sender",
          "type": "address"
        }
      ],
      "name": "ERC20InvalidSender",
      "type": "error"
    },
    {
      "inputs": [
        {
          "internalType": "address",
          "name": "spender",
          "type": "address"
        }
      ],
      "name": "ERC20InvalidSpender",
      "type": "error"
    },
    {
      "anonymous": false,
      "inputs": [
        {
          "indexed": true,
          "internalType": "address",
          "name": "owner",
          "type": "address"
        },
        {
          "indexed": true,
          "internalType": "address",
          "name": "spender",
          "type": "address"
        },
        {
          "indexed": false,
          "internalType": "uint256",
          "name": "value",
          "type": "uint256"
        }
      ],
      "name": "Approval",
      "type": "event"
    },
    {
      "anonymous": false,
      "inputs": [
        {
          "indexed": true,
          "internalType": "address",
          "name": "player",
          "type": "address"
        },
        {
          "indexed": false,
          "internalType": "uint256",
          "name": "amount",
          "type": "uint256"
        },
        {
          "indexed": false,
          "internalType": "uint8",
          "name": "rarity",
          "type": "uint8"
        },
        {
          "indexed": false,
          "internalType": "uint256",
          "name": "stage",
          "type": "uint256"
        }
      ],
      "name": "RewardMinted",
      "type": "event"
    },
    {
      "anonymous": false,
      "inputs": [
        {
          "indexed": true,
          "internalType": "address",
          "name": "burner",
          "type": "address"
        },
        {
          "indexed": false,
          "internalType": "uint256",
          "name": "amount",
          "type": "uint256"
        },
        {
          "indexed": false,
          "internalType": "uint256",
          "name": "totalBurned",
          "type": "uint256"
        }
      ],
      "name": "TokensBurned",
      "type": "event"
    },
    {
      "anonymous": false,
      "inputs": [
        {
          "indexed": true,
          "internalType": "address",
          "name": "from",
          "type": "address"
        },
        {
          "indexed": true,
          "internalType": "address",
          "name": "to",
          "type": "address"
        },
        {
          "indexed": false,
          "internalType": "uint256",
          "name": "value",
          "type": "uint256"
        }
      ],
      "name": "Transfer",
      "type": "event"
    },
    {
      "inputs": [],
      "name": "MAX_DAILY_MINT",
      "outputs": [
        {
          "internalType": "uint256",
          "name": "",
          "type": "uint256"
        }
      ],
      "stateMutability": "view",
      "type": "function"
    },
    {
      "inputs": [],
      "name": "MAX_SUPPLY",
      "outputs": [
        {
          "internalType": "uint256",
          "name": "",
          "type": "uint256"
        }
      ],
      "stateMutability": "view",
      "type": "function"
    },
    {
      "inputs": [
        {
          "internalType": "address",
          "name": "owner",
          "type": "address"
        },
        {
          "internalType": "address",
          "name": "spender",
          "type": "address"
        }
      ],
      "name": "allowance",
      "outputs": [
        {
          "internalType": "uint256",
          "name": "",
          "type": "uint256"
        }
      ],
      "stateMutability": "view",
      "type": "function"
    },
    {
      "inputs": [
        {
          "internalType": "address",
          "name": "spender",
          "type": "address"
        },
        {
          "internalType": "uint256",
          "name": "value",
          "type": "uint256"
        }
      ],
      "name": "approve",
      "outputs": [
        {
          "internalType": "bool",
          "name": "",
          "type": "bool"
        }
      ],
      "stateMutability": "nonpayable",
      "type": "function"
    },
    {
      "inputs": [
        {
          "internalType": "address",
          "name": "account",
          "type": "address"
        }
      ],
      "name": "balanceOf",
      "outputs": [
        {
          "internalType": "uint256",
          "name": "",
          "type": "uint256"
        }
      ],
      "stateMutability": "view",
      "type": "function"
    },
    {
      "inputs": [
        {
          "internalType": "uint256",
          "name": "amount",
          "type": "uint256"
        }
      ],
      "name": "burn",
      "outputs": [],
      "stateMutability": "nonpayable",
      "type": "function"
    },
    {
      "inputs": [],
      "name": "burnRate",
      "outputs": [
        {
          "internalType": "uint256",
          "name": "",
          "type": "uint256"
        }
      ],
      "stateMutability": "view",
      "type": "function"
    },
    {
      "inputs": [
        {
          "internalType": "uint256",
          "name": "rarity",
          "type": "uint256"
        },
        {
          "internalType": "uint256",
          "name": "growthStage",
          "type": "uint256"
        }
      ],
      "name": "calculateReward",
      "outputs": [
        {
          "internalType": "uint256",
          "name": "",
          "type": "uint256"
        }
      ],
      "stateMutability": "pure",
      "type": "function"
    },
    {
      "inputs": [],
      "name": "circulatingSupply",
      "outputs": [
        {
          "internalType": "uint256",
          "name": "",
          "type": "uint256"
        }
      ],
      "stateMutability": "view",
      "type": "function"
    },
    {
      "inputs": [
        {
          "internalType": "uint256",
          "name": "",
          "type": "uint256"
        }
      ],
      "name": "dailyMintedAmount",
      "outputs": [
        {
          "internalType": "uint256",
          "name": "",
          "type": "uint256"
        }
      ],
      "stateMutability": "view",
      "type": "function"
    },
    {
      "inputs": [],
      "name": "decimals",
      "outputs": [
        {
          "internalType": "uint8",
          "name": "",
          "type": "uint8"
        }
      ],
      "stateMutability": "view",
      "type": "function"
    },
    {
      "inputs": [],
      "name": "gameContract",
      "outputs": [
        {
          "internalType": "address",
          "name": "",
          "type": "address"
        }
      ],
      "stateMutability": "view",
      "type": "function"
    },
    {
      "inputs": [
        {
          "internalType": "address",
          "name": "",
          "type": "address"
        }
      ],
      "name": "lastBurnTime",
      "outputs": [
        {
          "internalType": "uint256",
          "name": "",
          "type": "uint256"
        }
      ],
      "stateMutability": "view",
      "type": "function"
    },
    {
      "inputs": [
        {
          "internalType": "address",
          "name": "to",
          "type": "address"
        },
        {
          "internalType": "uint256",
          "name": "amount",
          "type": "uint256"
        }
      ],
      "name": "mintReward",
      "outputs": [],
      "stateMutability": "nonpayable",
      "type": "function"
    },
    {
      "inputs": [],
      "name": "name",
      "outputs": [
        {
          "internalType": "string",
          "name": "",
          "type": "string"
        }
      ],
      "stateMutability": "view",
      "type": "function"
    },
    {
      "inputs": [],
      "name": "symbol",
      "outputs": [
        {
          "internalType": "string",
          "name": "",
          "type": "string"
        }
      ],
      "stateMutability": "view",
      "type": "function"
    },
    {
      "inputs": [],
      "name": "totalBurned",
      "outputs": [
        {
          "internalType": "uint256",
          "name": "",
          "type": "uint256"
        }
      ],
      "stateMutability": "view",
      "type": "function"
    },
    {
      "inputs": [],
      "name": "totalSupply",
      "outputs": [
        {
          "internalType": "uint256",
          "name": "",
          "type": "uint256"
        }
      ],
      "stateMutability": "view",
      "type": "function"
    },
    {
      "inputs": [
        {
          "internalType": "address",
          "name": "to",
          "type": "address"
        },
        {
          "internalType": "uint256",
          "name": "value",
          "type": "uint256"
        }
      ],
      "name": "transfer",
      "outputs": [
        {
          "internalType": "bool",
          "name": "",
          "type": "bool"
        }
      ],
      "stateMutability": "nonpayable",
      "type": "function"
    },
    {
      "inputs": [
        {
          "internalType": "address",
          "name": "from",
          "type": "address"
        },
        {
          "internalType": "address",
          "name": "to",
          "type": "address"
        },
        {
          "internalType": "uint256",
          "name": "value",
          "type": "uint256"
        }
      ],
      "name": "transferFrom",
      "outputs": [
        {
          "internalType": "bool",
          "name": "",
          "type": "bool"
        }
      ],
      "stateMutability": "nonpayable",
      "type": "function"
    }
  ],
  "bytecode": "0x608060405234801561000f575f5ffd5b506040516111f63803806111f683398101604081905261002e91610243565b6040518060400160405280600781526020016626bcaa37b5b2b760c91b815250604051806040016040528060038152602001624d544b60e81b81525081600390816100799190610312565b5060046100868282610312565b5050506100b53361009b6100db60201b60201c565b6100a690600a6104c5565b6100b090846104da565b6100e0565b50600580546001600160a01b0319166001600160a01b0392909216919091179055610504565b601290565b6001600160a01b03821661010e5760405163ec442f0560e01b81525f60048201526024015b60405180910390fd5b6101195f838361011d565b5050565b6001600160a01b038316610147578060025f82825461013c91906104f1565b909155506101b79050565b6001600160a01b0383165f90815260208190526040902054818110156101995760405163391434e360e21b81526001600160a01b03851660048201526024810182905260448101839052606401610105565b6001600160a01b0384165f9081526020819052604090209082900390555b6001600160a01b0382166101d3576002805482900390556101f1565b6001600160a01b0382165f9081526020819052604090208054820190555b816001600160a01b0316836001600160a01b03167fddf252ad1be2c89b69c2b068fc378daa952ba7f163c4a11628f55a4df523b3ef8360405161023691815260200190565b60405180910390a3505050565b5f5f60408385031215610254575f5ffd5b82516001600160a01b038116811461026a575f5ffd5b6020939093015192949293505050565b634e487b7160e01b5f52604160045260245ffd5b600181811c908216806102a257607f821691505b6020821081036102c057634e487b7160e01b5f52602260045260245ffd5b50919050565b601f82111561030d57805f5260205f20601f840160051c810160208510156102eb5750805b601f840160051c820191505b8181101561030a575f81556001016102f7565b50505b505050565b81516001600160401b0381111561032b5761032b61027a565b61033f81610339845461028e565b846102c6565b6020601f821160018114610371575f831561035a5750848201515b5f19600385901b1c1916600184901b17845561030a565b5f84815260208120601f198516915b828110156103a05787850151825560209485019460019092019101610380565b50848210156103bd57868401515f19600387901b60f8161c191681555b50505050600190811b01905550565b634e487b7160e01b5f52601160045260245ffd5b6001815b600184111561041b578085048111156103ff576103ff6103cc565b600184161561040d57908102905b60019390931c9280026103e4565b935093915050565b5f82610431575060016104bf565b8161043d57505f6104bf565b8160018114610453576002811461045d57610479565b60019150506104bf565b60ff84111561046e5761046e6103cc565b50506001821b6104bf565b5060208310610133831016604e8410600b841016171561049c575081810a6104bf565b6104a85f1984846103e0565b805f19048211156104bb576104bb6103cc565b0290505b92915050565b5f6104d360ff841683610423565b9392505050565b80820281158282048414176104bf576104bf6103cc565b808201808211156104bf576104bf6103cc565b610ce5806105115f395ff3fe608060405234801561000f575f5ffd5b5060043610610127575f3560e01c80635923f705116100a9578063a9059cbb1161006e578063a9059cbb14610278578063bed998501461028b578063d3f3300914610293578063d89135cd146102be578063dd62ed3e146102c7575f5ffd5b80635923f7051461021c57806370a082311461022d5780639358928b1461025557806395d89b411461025d5780639a49090e14610265575f5ffd5b806323b872dd116100ef57806323b872dd146101b4578063313ce567146101c757806332cb6b0c146101d657806341e4b16c146101e857806342966c6814610207575f5ffd5b806306fdde031461012b57806306ff498e14610149578063095ea7b31461017657806313ed08461461019957806318160ddd146101ac575b5f5ffd5b6101336102ff565b6040516101409190610ad4565b60405180910390f35b610168610157366004610b09565b60066020525f908152604090205481565b604051908152602001610140565b610189610184366004610b3b565b61038f565b6040519015158152602001610140565b6101686101a7366004610b63565b6103a8565b600254610168565b6101896101c2366004610b83565b610482565b60405160128152602001610140565b6101686a52b7d2dcc80cd2e400000081565b6101686101f6366004610bbd565b60076020525f908152604090205481565b61021a610215366004610b09565b6104a5565b005b61016869021e19e0c9bab240000081565b61016861023b366004610bbd565b6001600160a01b03165f9081526020819052604090205490565b6101686105a5565b6101336105d1565b61021a610273366004610b3b565b6105e0565b610189610286366004610b3b565b610752565b61016861075f565b6005546102a6906001600160a01b031681565b6040516001600160a01b039091168152602001610140565b61016860085481565b6101686102d5366004610bd6565b6001600160a01b039182165f90815260016020908152604080832093909416825291909152205490565b60606003805461030e90610c07565b80601f016020809104026020016040519081016040528092919081815260200182805461033a90610c07565b80156103855780601f1061035c57610100808354040283529160200191610385565b820191905f5260205f20905b81548152906001019060200180831161036857829003601f168201915b5050505050905090565b5f3361039c81858561078f565b60019150505b92915050565b5f678ac7230489e8000060018390036103cd576103c6816001610c53565b905061041c565b826002036103e0576103c6816002610c53565b826003036103f3576103c6816003610c53565b82600403610406576103c6816005610c53565b8260050361041c5761041981600a610c53565b90505b835f0361042a57505f61047b565b8360010361045057606461043f826032610c53565b6104499190610c6a565b905061047b565b8360020361046557606461043f82604b610c53565b8360030361047b57610478816001610c53565b90505b9392505050565b5f3361048f8582856107a1565b61049a858585610817565b506001949350505050565b678ac7230489e800008110156104f85760405162461bcd60e51b815260206004820152601360248201527226b4b734b6bab690313ab9371018981023a22760691b60448201526064015b60405180910390fd5b335f908152600760205260409020546105148162015180610c89565b421161056e5760405162461bcd60e51b815260206004820152602360248201527f4275726e696e6720697320616c6c6f776564206f6e652064617920706572207560448201526239b2b960e91b60648201526084016104ef565b335f90815260076020526040812042905560088054849290610591908490610c89565b909155506105a190503383610874565b5050565b6005546001600160a01b03165f908152602081905260408120546002546105cc9190610c9c565b905090565b60606004805461030e90610c07565b6005546001600160a01b0316331461063a5760405162461bcd60e51b815260206004820152601b60248201527f4f6e6c792067616d6520636f6e74726163742063616e2063616c6c000000000060448201526064016104ef565b6a52b7d2dcc80cd2e40000008161065060025490565b61065a9190610c89565b11156106a85760405162461bcd60e51b815260206004820152601860248201527f546f74616c20737570706c79206973206578636565646564000000000000000060448201526064016104ef565b5f6106b66201518042610c6a565b5f8181526006602052604090205490915069021e19e0c9bab24000006106dc8483610c89565b111561072a5760405162461bcd60e51b815260206004820152601960248201527f4461696c79206d696e74206c696d69742065786365656465640000000000000060448201526064016104ef565b6107348382610c89565b5f8381526006602052604090205561074c84846108a8565b50505050565b5f3361039c818585610817565b5f61076960025490565b5f0361077457505f90565b600254600854610785906064610c53565b6105cc9190610c6a565b61079c83838360016108dc565b505050565b6001600160a01b038381165f908152600160209081526040808320938616835292905220545f1981101561074c578181101561080957604051637dc7a0d960e11b81526001600160a01b038416600482015260248101829052604481018390526064016104ef565b61074c84848484035f6108dc565b6001600160a01b03831661084057604051634b637e8f60e11b81525f60048201526024016104ef565b6001600160a01b0382166108695760405163ec442f0560e01b81525f60048201526024016104ef565b61079c8383836109ae565b6001600160a01b03821661089d57604051634b637e8f60e11b81525f60048201526024016104ef565b6105a1825f836109ae565b6001600160a01b0382166108d15760405163ec442f0560e01b81525f60048201526024016104ef565b6105a15f83836109ae565b6001600160a01b0384166109055760405163e602df0560e01b81525f60048201526024016104ef565b6001600160a01b03831661092e57604051634a1406b160e11b81525f60048201526024016104ef565b6001600160a01b038085165f908152600160209081526040808320938716835292905220829055801561074c57826001600160a01b0316846001600160a01b03167f8c5be1e5ebec7d5bd14f71427d1e84f3dd0314c0f7b2291e5b200ac8c7c3b925846040516109a091815260200190565b60405180910390a350505050565b6001600160a01b0383166109d8578060025f8282546109cd9190610c89565b90915550610a489050565b6001600160a01b0383165f9081526020819052604090205481811015610a2a5760405163391434e360e21b81526001600160a01b038516600482015260248101829052604481018390526064016104ef565b6001600160a01b0384165f9081526020819052604090209082900390555b6001600160a01b038216610a6457600280548290039055610a82565b6001600160a01b0382165f9081526020819052604090208054820190555b816001600160a01b0316836001600160a01b03167fddf252ad1be2c89b69c2b068fc378daa952ba7f163c4a11628f55a4df523b3ef83604051610ac791815260200190565b60405180910390a3505050565b602081525f82518060208401528060208501604085015e5f604082850101526040601f19601f83011684010191505092915050565b5f60208284031215610b19575f5ffd5b5035919050565b80356001600160a01b0381168114610b36575f5ffd5b919050565b5f5f60408385031215610b4c575f5ffd5b610b5583610b20565b946020939093013593505050565b5f5f60408385031215610b74575f5ffd5b50508035926020909101359150565b5f5f5f60608486031215610b95575f5ffd5b610b9e84610b20565b9250610bac60208501610b20565b929592945050506040919091013590565b5f60208284031215610bcd575f5ffd5b61047b82610b20565b5f5f60408385031215610be7575f5ffd5b610bf083610b20565b9150610bfe60208401610b20565b90509250929050565b600181811c90821680610c1b57607f821691505b602082108103610c3957634e487b7160e01b5f52602260045260245ffd5b50919050565b634e487b7160e01b5f52601160045260245ffd5b80820281158282048414176103a2576103a2610c3f565b5f82610c8457634e487b7160e01b5f52601260045260245ffd5b500490565b808201808211156103a2576103a2610c3f565b818103818111156103a2576103a2610c3f56fea26469706673582212201c2d9ae09b1735ae449fb72e7a454b8f8fea75f20363b1b8d6042a2d6cb5090c64736f6c634300081e0033",
  "linkReferences": {},
  "deployedLinkReferences": {},
  "immutableReferences": {},
  "inputSourceName": "project/contracts/GardenToken.sol",
  "buildInfoId": "solc-0_8_30-f32f4767af7903b35f05fb548cb7342a11a6202a"
}